{
  "_format": "hh-sol-artifact-1",
  "contractName": "NFTMarketplace",
  "sourceName": "contracts/NFTMarketplace.sol",
  "abi": [
    {
      "inputs": [],
      "stateMutability": "nonpayable",
      "type": "constructor"
    },
    {
      "anonymous": false,
      "inputs": [
        {
          "indexed": true,
          "internalType": "address",
          "name": "owner",
          "type": "address"
        },
        {
          "indexed": true,
          "internalType": "address",
          "name": "approved",
          "type": "address"
        },
        {
          "indexed": true,
          "internalType": "uint256",
          "name": "tokenId",
          "type": "uint256"
        }
      ],
      "name": "Approval",
      "type": "event"
    },
    {
      "anonymous": false,
      "inputs": [
        {
          "indexed": true,
          "internalType": "address",
          "name": "owner",
          "type": "address"
        },
        {
          "indexed": true,
          "internalType": "address",
          "name": "operator",
          "type": "address"
        },
        {
          "indexed": false,
          "internalType": "bool",
          "name": "approved",
          "type": "bool"
        }
      ],
      "name": "ApprovalForAll",
      "type": "event"
    },
    {
      "anonymous": false,
      "inputs": [
        {
          "indexed": false,
          "internalType": "uint256",
          "name": "_fromTokenId",
          "type": "uint256"
        },
        {
          "indexed": false,
          "internalType": "uint256",
          "name": "_toTokenId",
          "type": "uint256"
        }
      ],
      "name": "BatchMetadataUpdate",
      "type": "event"
    },
    {
      "anonymous": false,
      "inputs": [
        {
          "indexed": true,
          "internalType": "uint256",
          "name": "tokenId",
          "type": "uint256"
        },
        {
          "indexed": false,
          "internalType": "address",
          "name": "seller",
          "type": "address"
        },
        {
          "indexed": false,
          "internalType": "address",
          "name": "owner",
          "type": "address"
        },
        {
          "indexed": false,
          "internalType": "uint256",
          "name": "price",
          "type": "uint256"
        },
        {
          "indexed": false,
          "internalType": "bool",
          "name": "sold",
          "type": "bool"
        }
      ],
      "name": "MarketItemCreated",
      "type": "event"
    },
    {
      "anonymous": false,
      "inputs": [
        {
          "indexed": false,
          "internalType": "uint256",
          "name": "_tokenId",
          "type": "uint256"
        }
      ],
      "name": "MetadataUpdate",
      "type": "event"
    },
    {
      "anonymous": false,
      "inputs": [
        {
          "indexed": true,
          "internalType": "address",
          "name": "previousOwner",
          "type": "address"
        },
        {
          "indexed": true,
          "internalType": "address",
          "name": "newOwner",
          "type": "address"
        }
      ],
      "name": "OwnershipTransferred",
      "type": "event"
    },
    {
      "anonymous": false,
      "inputs": [
        {
          "indexed": true,
          "internalType": "address",
          "name": "from",
          "type": "address"
        },
        {
          "indexed": true,
          "internalType": "address",
          "name": "to",
          "type": "address"
        },
        {
          "indexed": true,
          "internalType": "uint256",
          "name": "tokenId",
          "type": "uint256"
        }
      ],
      "name": "Transfer",
      "type": "event"
    },
    {
      "inputs": [
        {
          "internalType": "address",
          "name": "to",
          "type": "address"
        },
        {
          "internalType": "uint256",
          "name": "tokenId",
          "type": "uint256"
        }
      ],
      "name": "approve",
      "outputs": [],
      "stateMutability": "nonpayable",
      "type": "function"
    },
    {
      "inputs": [
        {
          "internalType": "address",
          "name": "owner",
          "type": "address"
        }
      ],
      "name": "balanceOf",
      "outputs": [
        {
          "internalType": "uint256",
          "name": "",
          "type": "uint256"
        }
      ],
      "stateMutability": "view",
      "type": "function"
    },
    {
      "inputs": [
        {
          "internalType": "uint256",
          "name": "tokenId",
          "type": "uint256"
        }
      ],
      "name": "cancelListing",
      "outputs": [],
      "stateMutability": "nonpayable",
      "type": "function"
    },
    {
      "inputs": [
        {
          "internalType": "uint256",
          "name": "tokenId",
          "type": "uint256"
        }
      ],
      "name": "createMarketSale",
      "outputs": [],
      "stateMutability": "payable",
      "type": "function"
    },
    {
      "inputs": [
        {
          "internalType": "string",
          "name": "tokenURI",
          "type": "string"
        },
        {
          "internalType": "uint256",
          "name": "price",
          "type": "uint256"
        }
      ],
      "name": "createToken",
      "outputs": [
        {
          "internalType": "uint256",
          "name": "",
          "type": "uint256"
        }
      ],
      "stateMutability": "payable",
      "type": "function"
    },
    {
      "inputs": [
        {
          "internalType": "uint256",
          "name": "tokenId",
          "type": "uint256"
        }
      ],
      "name": "deleteNFT",
      "outputs": [],
      "stateMutability": "nonpayable",
      "type": "function"
    },
    {
      "inputs": [],
      "name": "fetchAllNFTs",
      "outputs": [
        {
          "components": [
            {
              "internalType": "uint256",
              "name": "tokenId",
              "type": "uint256"
            },
            {
              "internalType": "address payable",
              "name": "seller",
              "type": "address"
            },
            {
              "internalType": "address payable",
              "name": "owner",
              "type": "address"
            },
            {
              "internalType": "uint256",
              "name": "price",
              "type": "uint256"
            },
            {
              "internalType": "bool",
              "name": "sold",
              "type": "bool"
            }
          ],
          "internalType": "struct NFTMarketplace.MarketItem[]",
          "name": "",
          "type": "tuple[]"
        }
      ],
      "stateMutability": "view",
      "type": "function"
    },
    {
      "inputs": [],
      "name": "fetchItemsListed",
      "outputs": [
        {
          "components": [
            {
              "internalType": "uint256",
              "name": "tokenId",
              "type": "uint256"
            },
            {
              "internalType": "address payable",
              "name": "seller",
              "type": "address"
            },
            {
              "internalType": "address payable",
              "name": "owner",
              "type": "address"
            },
            {
              "internalType": "uint256",
              "name": "price",
              "type": "uint256"
            },
            {
              "internalType": "bool",
              "name": "sold",
              "type": "bool"
            }
          ],
          "internalType": "struct NFTMarketplace.MarketItem[]",
          "name": "",
          "type": "tuple[]"
        }
      ],
      "stateMutability": "view",
      "type": "function"
    },
    {
      "inputs": [],
      "name": "fetchMarketItems",
      "outputs": [
        {
          "components": [
            {
              "internalType": "uint256",
              "name": "tokenId",
              "type": "uint256"
            },
            {
              "internalType": "address payable",
              "name": "seller",
              "type": "address"
            },
            {
              "internalType": "address payable",
              "name": "owner",
              "type": "address"
            },
            {
              "internalType": "uint256",
              "name": "price",
              "type": "uint256"
            },
            {
              "internalType": "bool",
              "name": "sold",
              "type": "bool"
            }
          ],
          "internalType": "struct NFTMarketplace.MarketItem[]",
          "name": "",
          "type": "tuple[]"
        }
      ],
      "stateMutability": "view",
      "type": "function"
    },
    {
      "inputs": [],
      "name": "fetchMyNFTs",
      "outputs": [
        {
          "components": [
            {
              "internalType": "uint256",
              "name": "tokenId",
              "type": "uint256"
            },
            {
              "internalType": "address payable",
              "name": "seller",
              "type": "address"
            },
            {
              "internalType": "address payable",
              "name": "owner",
              "type": "address"
            },
            {
              "internalType": "uint256",
              "name": "price",
              "type": "uint256"
            },
            {
              "internalType": "bool",
              "name": "sold",
              "type": "bool"
            }
          ],
          "internalType": "struct NFTMarketplace.MarketItem[]",
          "name": "",
          "type": "tuple[]"
        }
      ],
      "stateMutability": "view",
      "type": "function"
    },
    {
      "inputs": [
        {
          "internalType": "uint256",
          "name": "tokenId",
          "type": "uint256"
        }
      ],
      "name": "getApproved",
      "outputs": [
        {
          "internalType": "address",
          "name": "",
          "type": "address"
        }
      ],
      "stateMutability": "view",
      "type": "function"
    },
    {
      "inputs": [],
      "name": "getListingPrice",
      "outputs": [
        {
          "internalType": "uint256",
          "name": "",
          "type": "uint256"
        }
      ],
      "stateMutability": "view",
      "type": "function"
    },
    {
      "inputs": [
        {
          "internalType": "uint256",
          "name": "tokenId",
          "type": "uint256"
        }
      ],
      "name": "getMarketItem",
      "outputs": [
        {
          "internalType": "uint256",
          "name": "",
          "type": "uint256"
        },
        {
          "internalType": "address",
          "name": "",
          "type": "address"
        },
        {
          "internalType": "address",
          "name": "",
          "type": "address"
        },
        {
          "internalType": "uint256",
          "name": "",
          "type": "uint256"
        },
        {
          "internalType": "bool",
          "name": "",
          "type": "bool"
        }
      ],
      "stateMutability": "view",
      "type": "function"
    },
    {
      "inputs": [],
      "name": "getMintingFee",
      "outputs": [
        {
          "internalType": "uint256",
          "name": "",
          "type": "uint256"
        }
      ],
      "stateMutability": "view",
      "type": "function"
    },
    {
      "inputs": [],
      "name": "getMyListings",
      "outputs": [
        {
          "components": [
            {
              "internalType": "uint256",
              "name": "tokenId",
              "type": "uint256"
            },
            {
              "internalType": "address payable",
              "name": "seller",
              "type": "address"
            },
            {
              "internalType": "address payable",
              "name": "owner",
              "type": "address"
            },
            {
              "internalType": "uint256",
              "name": "price",
              "type": "uint256"
            },
            {
              "internalType": "bool",
              "name": "sold",
              "type": "bool"
            }
          ],
          "internalType": "struct NFTMarketplace.MarketItem[]",
          "name": "",
          "type": "tuple[]"
        }
      ],
      "stateMutability": "view",
      "type": "function"
    },
    {
      "inputs": [
        {
          "internalType": "address",
          "name": "user",
          "type": "address"
        }
      ],
      "name": "getOwnedTokenIds",
      "outputs": [
        {
          "internalType": "uint256[]",
          "name": "",
          "type": "uint256[]"
        }
      ],
      "stateMutability": "view",
      "type": "function"
    },
    {
      "inputs": [
        {
          "internalType": "uint256",
          "name": "",
          "type": "uint256"
        }
      ],
      "name": "idToMarketItem",
      "outputs": [
        {
          "internalType": "uint256",
          "name": "tokenId",
          "type": "uint256"
        },
        {
          "internalType": "address payable",
          "name": "seller",
          "type": "address"
        },
        {
          "internalType": "address payable",
          "name": "owner",
          "type": "address"
        },
        {
          "internalType": "uint256",
          "name": "price",
          "type": "uint256"
        },
        {
          "internalType": "bool",
          "name": "sold",
          "type": "bool"
        }
      ],
      "stateMutability": "view",
      "type": "function"
    },
    {
      "inputs": [
        {
          "internalType": "address",
          "name": "owner",
          "type": "address"
        },
        {
          "internalType": "address",
          "name": "operator",
          "type": "address"
        }
      ],
      "name": "isApprovedForAll",
      "outputs": [
        {
          "internalType": "bool",
          "name": "",
          "type": "bool"
        }
      ],
      "stateMutability": "view",
      "type": "function"
    },
    {
      "inputs": [
        {
          "internalType": "uint256",
          "name": "tokenId",
          "type": "uint256"
        }
      ],
      "name": "isListed",
      "outputs": [
        {
          "internalType": "bool",
          "name": "",
          "type": "bool"
        }
      ],
      "stateMutability": "view",
      "type": "function"
    },
    {
      "inputs": [],
      "name": "listingPrice",
      "outputs": [
        {
          "internalType": "uint256",
          "name": "",
          "type": "uint256"
        }
      ],
      "stateMutability": "view",
      "type": "function"
    },
    {
      "inputs": [
        {
          "internalType": "string",
          "name": "tokenURI",
          "type": "string"
        }
      ],
      "name": "mintOnly",
      "outputs": [
        {
          "internalType": "uint256",
          "name": "",
          "type": "uint256"
        }
      ],
      "stateMutability": "payable",
      "type": "function"
    },
    {
      "inputs": [],
      "name": "mintingFee",
      "outputs": [
        {
          "internalType": "uint256",
          "name": "",
          "type": "uint256"
        }
      ],
      "stateMutability": "view",
      "type": "function"
    },
    {
      "inputs": [],
      "name": "name",
      "outputs": [
        {
          "internalType": "string",
          "name": "",
          "type": "string"
        }
      ],
      "stateMutability": "view",
      "type": "function"
    },
    {
      "inputs": [],
      "name": "owner",
      "outputs": [
        {
          "internalType": "address",
          "name": "",
          "type": "address"
        }
      ],
      "stateMutability": "view",
      "type": "function"
    },
    {
      "inputs": [
        {
          "internalType": "uint256",
          "name": "tokenId",
          "type": "uint256"
        }
      ],
      "name": "ownerOf",
      "outputs": [
        {
          "internalType": "address",
          "name": "",
          "type": "address"
        }
      ],
      "stateMutability": "view",
      "type": "function"
    },
    {
      "inputs": [],
      "name": "renounceOwnership",
      "outputs": [],
      "stateMutability": "nonpayable",
      "type": "function"
    },
    {
      "inputs": [
        {
          "internalType": "uint256",
          "name": "tokenId",
          "type": "uint256"
        },
        {
          "internalType": "uint256",
          "name": "price",
          "type": "uint256"
        }
      ],
      "name": "resellToken",
      "outputs": [],
      "stateMutability": "payable",
      "type": "function"
    },
    {
      "inputs": [
        {
          "internalType": "address",
          "name": "from",
          "type": "address"
        },
        {
          "internalType": "address",
          "name": "to",
          "type": "address"
        },
        {
          "internalType": "uint256",
          "name": "tokenId",
          "type": "uint256"
        }
      ],
      "name": "safeTransferFrom",
      "outputs": [],
      "stateMutability": "nonpayable",
      "type": "function"
    },
    {
      "inputs": [
        {
          "internalType": "address",
          "name": "from",
          "type": "address"
        },
        {
          "internalType": "address",
          "name": "to",
          "type": "address"
        },
        {
          "internalType": "uint256",
          "name": "tokenId",
          "type": "uint256"
        },
        {
          "internalType": "bytes",
          "name": "data",
          "type": "bytes"
        }
      ],
      "name": "safeTransferFrom",
      "outputs": [],
      "stateMutability": "nonpayable",
      "type": "function"
    },
    {
      "inputs": [
        {
          "internalType": "address",
          "name": "operator",
          "type": "address"
        },
        {
          "internalType": "bool",
          "name": "approved",
          "type": "bool"
        }
      ],
      "name": "setApprovalForAll",
      "outputs": [],
      "stateMutability": "nonpayable",
      "type": "function"
    },
    {
      "inputs": [
        {
          "internalType": "bytes4",
          "name": "interfaceId",
          "type": "bytes4"
        }
      ],
      "name": "supportsInterface",
      "outputs": [
        {
          "internalType": "bool",
          "name": "",
          "type": "bool"
        }
      ],
      "stateMutability": "view",
      "type": "function"
    },
    {
      "inputs": [],
      "name": "symbol",
      "outputs": [
        {
          "internalType": "string",
          "name": "",
          "type": "string"
        }
      ],
      "stateMutability": "view",
      "type": "function"
    },
    {
      "inputs": [
        {
          "internalType": "uint256",
          "name": "tokenId",
          "type": "uint256"
        }
      ],
      "name": "tokenURI",
      "outputs": [
        {
          "internalType": "string",
          "name": "",
          "type": "string"
        }
      ],
      "stateMutability": "view",
      "type": "function"
    },
    {
      "inputs": [
        {
          "internalType": "address",
          "name": "from",
          "type": "address"
        },
        {
          "internalType": "address",
          "name": "to",
          "type": "address"
        },
        {
          "internalType": "uint256",
          "name": "tokenId",
          "type": "uint256"
        }
      ],
      "name": "transferFrom",
      "outputs": [],
      "stateMutability": "nonpayable",
      "type": "function"
    },
    {
      "inputs": [
        {
          "internalType": "address",
          "name": "newOwner",
          "type": "address"
        }
      ],
      "name": "transferOwnership",
      "outputs": [],
      "stateMutability": "nonpayable",
      "type": "function"
    },
    {
      "inputs": [
        {
          "internalType": "uint256",
          "name": "_listingPrice",
          "type": "uint256"
        }
      ],
      "name": "updateListingPrice",
      "outputs": [],
      "stateMutability": "nonpayable",
      "type": "function"
    },
    {
      "inputs": [
        {
          "internalType": "uint256",
          "name": "_mintingFee",
          "type": "uint256"
        }
      ],
      "name": "updateMintingFee",
      "outputs": [],
      "stateMutability": "nonpayable",
      "type": "function"
    }
  ],
  "bytecode": "0x60806040526658d15e17628000600a556611c37937e08000600b553480156200002757600080fd5b506040518060400160405280601281526020017f4d61726b6574706c61636520546f6b656e7300000000000000000000000000008152506040518060400160405280600381526020017f4d505400000000000000000000000000000000000000000000000000000000008152508160009081620000a5919062000428565b508060019081620000b7919062000428565b505050620000da620000ce620000e060201b60201c565b620000e860201b60201c565b6200050f565b600033905090565b6000600760009054906101000a900473ffffffffffffffffffffffffffffffffffffffff16905081600760006101000a81548173ffffffffffffffffffffffffffffffffffffffff021916908373ffffffffffffffffffffffffffffffffffffffff1602179055508173ffffffffffffffffffffffffffffffffffffffff168173ffffffffffffffffffffffffffffffffffffffff167f8be0079c531659141344cd1fd0a4f28419497f9722a3daafe3b4186f6b6457e060405160405180910390a35050565b600081519050919050565b7f4e487b7100000000000000000000000000000000000000000000000000000000600052604160045260246000fd5b7f4e487b7100000000000000000000000000000000000000000000000000000000600052602260045260246000fd5b600060028204905060018216806200023057607f821691505b602082108103620002465762000245620001e8565b5b50919050565b60008190508160005260206000209050919050565b60006020601f8301049050919050565b600082821b905092915050565b600060088302620002b07fffffffffffffffffffffffffffffffffffffffffffffffffffffffffffffffff8262000271565b620002bc868362000271565b95508019841693508086168417925050509392505050565b6000819050919050565b6000819050919050565b60006200030962000303620002fd84620002d4565b620002de565b620002d4565b9050919050565b6000819050919050565b6200032583620002e8565b6200033d620003348262000310565b8484546200027e565b825550505050565b600090565b6200035462000345565b620003618184846200031a565b505050565b5b8181101562000389576200037d6000826200034a565b60018101905062000367565b5050565b601f821115620003d857620003a2816200024c565b620003ad8462000261565b81016020851015620003bd578190505b620003d5620003cc8562000261565b83018262000366565b50505b505050565b600082821c905092915050565b6000620003fd60001984600802620003dd565b1980831691505092915050565b6000620004188383620003ea565b9150826002028217905092915050565b6200043382620001ae565b67ffffffffffffffff8111156200044f576200044e620001b9565b5b6200045b825462000217565b620004688282856200038d565b600060209050601f831160018114620004a057600084156200048b578287015190505b6200049785826200040a565b86555062000507565b601f198416620004b0866200024c565b60005b82811015620004da57848901518255600182019150602085019450602081019050620004b3565b86831015620004fa5784890151620004f6601f891682620003ea565b8355505b6001600288020188555050505b505050505050565b615b23806200051f6000396000f3fe6080604052600436106102195760003560e01c8063715018a611610123578063c0275a25116100ab578063e61a70c01161006f578063e61a70c0146107c8578063e985e9c514610809578063f2fde38b14610846578063f687ed571461086f578063fcce48831461089857610219565b8063c0275a25146106da578063c78f19f914610703578063c7be7a491461072e578063c87b56dd1461076f578063e219fc75146107ac57610219565b8063a22cb465116100f2578063a22cb46514610618578063ae677aa314610641578063b59d88a91461066a578063b88d4fde14610695578063be9af536146106be57610219565b8063715018a61461057b57806372b3b620146105925780638da5cb5b146105c257806395d89b41146105ed57610219565b8063305a67a8116101a65780634fac7e41116101755780634fac7e41146104695780635a64ad95146104a65780635cd567e8146104d15780636352211e1461050157806370a082311461053e57610219565b8063305a67a8146103c15780633f0e317b146103ea57806342842e0e1461041557806345f8fa801461043e57610219565b8063095ea7b3116101ed578063095ea7b3146102ee5780630f08efe01461031757806312e8558514610342578063202e37401461036d57806323b872dd1461039857610219565b8062754eea1461021e57806301ffc9a71461024957806306fdde0314610286578063081812fc146102b1575b600080fd5b34801561022a57600080fd5b506102336108d5565b6040516102409190614090565b60405180910390f35b34801561025557600080fd5b50610270600480360381019061026b919061411e565b610c26565b60405161027d919061415a565b60405180910390f35b34801561029257600080fd5b5061029b610c87565b6040516102a89190614205565b60405180910390f35b3480156102bd57600080fd5b506102d860048036038101906102d39190614253565b610d19565b6040516102e591906142a1565b60405180910390f35b3480156102fa57600080fd5b50610315600480360381019061031091906142e8565b610d5f565b005b34801561032357600080fd5b5061032c610e76565b6040516103399190614090565b60405180910390f35b34801561034e57600080fd5b506103576110d1565b6040516103649190614337565b60405180910390f35b34801561037957600080fd5b506103826110db565b60405161038f9190614090565b60405180910390f35b3480156103a457600080fd5b506103bf60048036038101906103ba9190614352565b6113b9565b005b3480156103cd57600080fd5b506103e860048036038101906103e39190614253565b611419565b005b3480156103f657600080fd5b506103ff611663565b60405161040c9190614090565b60405180910390f35b34801561042157600080fd5b5061043c60048036038101906104379190614352565b611823565b005b34801561044a57600080fd5b50610453611843565b6040516104609190614090565b60405180910390f35b34801561047557600080fd5b50610490600480360381019061048b91906143a5565b611b21565b60405161049d9190614481565b60405180910390f35b3480156104b257600080fd5b506104bb611ca2565b6040516104c89190614337565b60405180910390f35b6104eb60048036038101906104e691906145d8565b611ca8565b6040516104f89190614337565b60405180910390f35b34801561050d57600080fd5b5061052860048036038101906105239190614253565b611d23565b60405161053591906142a1565b60405180910390f35b34801561054a57600080fd5b50610565600480360381019061056091906143a5565b611da9565b6040516105729190614337565b60405180910390f35b34801561058757600080fd5b50610590611e60565b005b6105ac60048036038101906105a79190614621565b611e74565b6040516105b99190614337565b60405180910390f35b3480156105ce57600080fd5b506105d7611f07565b6040516105e491906142a1565b60405180910390f35b3480156105f957600080fd5b50610602611f31565b60405161060f9190614205565b60405180910390f35b34801561062457600080fd5b5061063f600480360381019061063a91906146a9565b611fc3565b005b34801561064d57600080fd5b5061066860048036038101906106639190614253565b611fd9565b005b34801561067657600080fd5b5061067f611feb565b60405161068c9190614337565b60405180910390f35b3480156106a157600080fd5b506106bc60048036038101906106b7919061478a565b611ff5565b005b6106d860048036038101906106d39190614253565b612057565b005b3480156106e657600080fd5b5061070160048036038101906106fc9190614253565b61227a565b005b34801561070f57600080fd5b5061071861228c565b6040516107259190614337565b60405180910390f35b34801561073a57600080fd5b5061075560048036038101906107509190614253565b612292565b60405161076695949392919061480d565b60405180910390f35b34801561077b57600080fd5b5061079660048036038101906107919190614253565b6123c3565b6040516107a39190614205565b60405180910390f35b6107c660048036038101906107c19190614860565b6124d5565b005b3480156107d457600080fd5b506107ef60048036038101906107ea9190614253565b6126ca565b6040516108009594939291906148af565b60405180910390f35b34801561081557600080fd5b50610830600480360381019061082b9190614902565b61274d565b60405161083d919061415a565b60405180910390f35b34801561085257600080fd5b5061086d600480360381019061086891906143a5565b6127e1565b005b34801561087b57600080fd5b5061089660048036038101906108919190614253565b612864565b005b3480156108a457600080fd5b506108bf60048036038101906108ba9190614253565b612948565b6040516108cc919061415a565b60405180910390f35b606060006108e360086129e3565b90506000805b828110156109c2573373ffffffffffffffffffffffffffffffffffffffff16600c60006001846109199190614971565b815260200190815260200160002060010160009054906101000a900473ffffffffffffffffffffffffffffffffffffffff1673ffffffffffffffffffffffffffffffffffffffff1614801561099b5750600c600060018361097a9190614971565b815260200190815260200160002060040160009054906101000a900460ff16155b156109af5781806109ab906149a5565b9250505b80806109ba906149a5565b9150506108e9565b5060008167ffffffffffffffff8111156109df576109de6144ad565b5b604051908082528060200260200182016040528015610a1857816020015b610a05613e4a565b8152602001906001900390816109fd5790505b5090506000805b84811015610c1b573373ffffffffffffffffffffffffffffffffffffffff16600c6000600184610a4f9190614971565b815260200190815260200160002060010160009054906101000a900473ffffffffffffffffffffffffffffffffffffffff1673ffffffffffffffffffffffffffffffffffffffff16148015610ad15750600c6000600183610ab09190614971565b815260200190815260200160002060040160009054906101000a900460ff16155b15610c0857600c6000600183610ae79190614971565b81526020019081526020016000206040518060a0016040529081600082015481526020016001820160009054906101000a900473ffffffffffffffffffffffffffffffffffffffff1673ffffffffffffffffffffffffffffffffffffffff1673ffffffffffffffffffffffffffffffffffffffff1681526020016002820160009054906101000a900473ffffffffffffffffffffffffffffffffffffffff1673ffffffffffffffffffffffffffffffffffffffff1673ffffffffffffffffffffffffffffffffffffffff168152602001600382015481526020016004820160009054906101000a900460ff161515151581525050838381518110610bee57610bed6149ed565b5b60200260200101819052508180610c04906149a5565b9250505b8080610c13906149a5565b915050610a1f565b508194505050505090565b6000634906490660e01b7bffffffffffffffffffffffffffffffffffffffffffffffffffffffff1916827bffffffffffffffffffffffffffffffffffffffffffffffffffffffff19161480610c805750610c7f826129f1565b5b9050919050565b606060008054610c9690614a4b565b80601f0160208091040260200160405190810160405280929190818152602001828054610cc290614a4b565b8015610d0f5780601f10610ce457610100808354040283529160200191610d0f565b820191906000526020600020905b815481529060010190602001808311610cf257829003601f168201915b5050505050905090565b6000610d2482612ad3565b6004600083815260200190815260200160002060009054906101000a900473ffffffffffffffffffffffffffffffffffffffff169050919050565b6000610d6a82611d23565b90508073ffffffffffffffffffffffffffffffffffffffff168373ffffffffffffffffffffffffffffffffffffffff1603610dda576040517f08c379a0000000000000000000000000000000000000000000000000000000008152600401610dd190614aee565b60405180910390fd5b8073ffffffffffffffffffffffffffffffffffffffff16610df9612b1e565b73ffffffffffffffffffffffffffffffffffffffff161480610e285750610e2781610e22612b1e565b61274d565b5b610e67576040517f08c379a0000000000000000000000000000000000000000000000000000000008152600401610e5e90614b80565b60405180910390fd5b610e718383612b26565b505050565b60606000610e8460086129e3565b90506000610e9260096129e3565b610e9c60086129e3565b610ea69190614ba0565b90506000808267ffffffffffffffff811115610ec557610ec46144ad565b5b604051908082528060200260200182016040528015610efe57816020015b610eeb613e4a565b815260200190600190039081610ee35790505b50905060005b848110156110c6573073ffffffffffffffffffffffffffffffffffffffff16600c6000600184610f349190614971565b815260200190815260200160002060020160009054906101000a900473ffffffffffffffffffffffffffffffffffffffff1673ffffffffffffffffffffffffffffffffffffffff16036110b357600c6000600183610f929190614971565b81526020019081526020016000206040518060a0016040529081600082015481526020016001820160009054906101000a900473ffffffffffffffffffffffffffffffffffffffff1673ffffffffffffffffffffffffffffffffffffffff1673ffffffffffffffffffffffffffffffffffffffff1681526020016002820160009054906101000a900473ffffffffffffffffffffffffffffffffffffffff1673ffffffffffffffffffffffffffffffffffffffff1673ffffffffffffffffffffffffffffffffffffffff168152602001600382015481526020016004820160009054906101000a900460ff161515151581525050828481518110611099576110986149ed565b5b602002602001018190525082806110af906149a5565b9350505b80806110be906149a5565b915050610f04565b508094505050505090565b6000600a54905090565b606060006110e960086129e3565b905060008060005b83811015611190573373ffffffffffffffffffffffffffffffffffffffff16600c60006001846111219190614971565b815260200190815260200160002060020160009054906101000a900473ffffffffffffffffffffffffffffffffffffffff1673ffffffffffffffffffffffffffffffffffffffff160361117d578280611179906149a5565b9350505b8080611188906149a5565b9150506110f1565b5060008267ffffffffffffffff8111156111ad576111ac6144ad565b5b6040519080825280602002602001820160405280156111e657816020015b6111d3613e4a565b8152602001906001900390816111cb5790505b50905060005b848110156113ae573373ffffffffffffffffffffffffffffffffffffffff16600c600060018461121c9190614971565b815260200190815260200160002060020160009054906101000a900473ffffffffffffffffffffffffffffffffffffffff1673ffffffffffffffffffffffffffffffffffffffff160361139b57600c600060018361127a9190614971565b81526020019081526020016000206040518060a0016040529081600082015481526020016001820160009054906101000a900473ffffffffffffffffffffffffffffffffffffffff1673ffffffffffffffffffffffffffffffffffffffff1673ffffffffffffffffffffffffffffffffffffffff1681526020016002820160009054906101000a900473ffffffffffffffffffffffffffffffffffffffff1673ffffffffffffffffffffffffffffffffffffffff1673ffffffffffffffffffffffffffffffffffffffff168152602001600382015481526020016004820160009054906101000a900460ff161515151581525050828481518110611381576113806149ed565b5b60200260200101819052508280611397906149a5565b9350505b80806113a6906149a5565b9150506111ec565b508094505050505090565b6113ca6113c4612b1e565b82612bdf565b611409576040517f08c379a000000000000000000000000000000000000000000000000000000000815260040161140090614c46565b60405180910390fd5b611414838383612c74565b505050565b6000600c600083815260200190815260200160002090503373ffffffffffffffffffffffffffffffffffffffff168160010160009054906101000a900473ffffffffffffffffffffffffffffffffffffffff1673ffffffffffffffffffffffffffffffffffffffff16146114c2576040517f08c379a00000000000000000000000000000000000000000000000000000000081526004016114b990614cb2565b60405180910390fd5b3073ffffffffffffffffffffffffffffffffffffffff168160020160009054906101000a900473ffffffffffffffffffffffffffffffffffffffff1673ffffffffffffffffffffffffffffffffffffffff1614611554576040517f08c379a000000000000000000000000000000000000000000000000000000000815260040161154b90614d1e565b60405180910390fd5b8060040160009054906101000a900460ff16156115a6576040517f08c379a000000000000000000000000000000000000000000000000000000000815260040161159d90614d8a565b60405180910390fd5b338160020160006101000a81548173ffffffffffffffffffffffffffffffffffffffff021916908373ffffffffffffffffffffffffffffffffffffffff16021790555060008160010160006101000a81548173ffffffffffffffffffffffffffffffffffffffff021916908373ffffffffffffffffffffffffffffffffffffffff16021790555060018160040160006101000a81548160ff0219169083151502179055506116546009612f6d565b61165f303384612c74565b5050565b606061166d612f83565b600061167960086129e3565b905060008167ffffffffffffffff811115611697576116966144ad565b5b6040519080825280602002602001820160405280156116d057816020015b6116bd613e4a565b8152602001906001900390816116b55790505b50905060005b8281101561181a576000600c60006001846116f19190614971565b81526020019081526020016000209050806040518060a0016040529081600082015481526020016001820160009054906101000a900473ffffffffffffffffffffffffffffffffffffffff1673ffffffffffffffffffffffffffffffffffffffff1673ffffffffffffffffffffffffffffffffffffffff1681526020016002820160009054906101000a900473ffffffffffffffffffffffffffffffffffffffff1673ffffffffffffffffffffffffffffffffffffffff1673ffffffffffffffffffffffffffffffffffffffff168152602001600382015481526020016004820160009054906101000a900460ff1615151515815250508383815181106117fb576117fa6149ed565b5b6020026020010181905250508080611812906149a5565b9150506116d6565b50809250505090565b61183e83838360405180602001604052806000815250611ff5565b505050565b6060600061185160086129e3565b905060008060005b838110156118f8573373ffffffffffffffffffffffffffffffffffffffff16600c60006001846118899190614971565b815260200190815260200160002060010160009054906101000a900473ffffffffffffffffffffffffffffffffffffffff1673ffffffffffffffffffffffffffffffffffffffff16036118e55782806118e1906149a5565b9350505b80806118f0906149a5565b915050611859565b5060008267ffffffffffffffff811115611915576119146144ad565b5b60405190808252806020026020018201604052801561194e57816020015b61193b613e4a565b8152602001906001900390816119335790505b50905060005b84811015611b16573373ffffffffffffffffffffffffffffffffffffffff16600c60006001846119849190614971565b815260200190815260200160002060010160009054906101000a900473ffffffffffffffffffffffffffffffffffffffff1673ffffffffffffffffffffffffffffffffffffffff1603611b0357600c60006001836119e29190614971565b81526020019081526020016000206040518060a0016040529081600082015481526020016001820160009054906101000a900473ffffffffffffffffffffffffffffffffffffffff1673ffffffffffffffffffffffffffffffffffffffff1673ffffffffffffffffffffffffffffffffffffffff1681526020016002820160009054906101000a900473ffffffffffffffffffffffffffffffffffffffff1673ffffffffffffffffffffffffffffffffffffffff1673ffffffffffffffffffffffffffffffffffffffff168152602001600382015481526020016004820160009054906101000a900460ff161515151581525050828481518110611ae957611ae86149ed565b5b60200260200101819052508280611aff906149a5565b9350505b8080611b0e906149a5565b915050611954565b508094505050505090565b60606000611b2f60086129e3565b90506000805b82811015611ba6578473ffffffffffffffffffffffffffffffffffffffff16611b69600183611b649190614971565b611d23565b73ffffffffffffffffffffffffffffffffffffffff1603611b93578180611b8f906149a5565b9250505b8080611b9e906149a5565b915050611b35565b5060008167ffffffffffffffff811115611bc357611bc26144ad565b5b604051908082528060200260200182016040528015611bf15781602001602082028036833780820191505090505b5090506000805b84811015611c95578673ffffffffffffffffffffffffffffffffffffffff16611c2c600183611c279190614971565b611d23565b73ffffffffffffffffffffffffffffffffffffffff1603611c8257600181611c549190614971565b838381518110611c6757611c666149ed565b5b6020026020010181815250508180611c7e906149a5565b9250505b8080611c8d906149a5565b915050611bf8565b5081945050505050919050565b600b5481565b6000600b543414611cee576040517f08c379a0000000000000000000000000000000000000000000000000000000008152600401611ce590614df6565b60405180910390fd5b611cf86008612f6d565b6000611d0460086129e3565b9050611d103382613001565b611d1a818461321e565b80915050919050565b600080611d2f836132c2565b9050600073ffffffffffffffffffffffffffffffffffffffff168173ffffffffffffffffffffffffffffffffffffffff1603611da0576040517f08c379a0000000000000000000000000000000000000000000000000000000008152600401611d9790614e62565b60405180910390fd5b80915050919050565b60008073ffffffffffffffffffffffffffffffffffffffff168273ffffffffffffffffffffffffffffffffffffffff1603611e19576040517f08c379a0000000000000000000000000000000000000000000000000000000008152600401611e1090614ef4565b60405180910390fd5b600360008373ffffffffffffffffffffffffffffffffffffffff1673ffffffffffffffffffffffffffffffffffffffff168152602001908152602001600020549050919050565b611e68612f83565b611e7260006132ff565b565b6000600a54600b54611e869190614971565b3414611ec7576040517f08c379a0000000000000000000000000000000000000000000000000000000008152600401611ebe90614f60565b60405180910390fd5b611ed16008612f6d565b6000611edd60086129e3565b9050611ee93382613001565b611ef3818561321e565b611efd81846133c5565b8091505092915050565b6000600760009054906101000a900473ffffffffffffffffffffffffffffffffffffffff16905090565b606060018054611f4090614a4b565b80601f0160208091040260200160405190810160405280929190818152602001828054611f6c90614a4b565b8015611fb95780601f10611f8e57610100808354040283529160200191611fb9565b820191906000526020600020905b815481529060010190602001808311611f9c57829003601f168201915b5050505050905090565b611fd5611fce612b1e565b8383613584565b5050565b611fe1612f83565b80600a8190555050565b6000600b54905090565b612006612000612b1e565b83612bdf565b612045576040517f08c379a000000000000000000000000000000000000000000000000000000000815260040161203c90614c46565b60405180910390fd5b612051848484846136f0565b50505050565b6000600c60008381526020019081526020016000206003015490506000600c600084815260200190815260200160002060010160009054906101000a900473ffffffffffffffffffffffffffffffffffffffff1690508134146120ef576040517f08c379a00000000000000000000000000000000000000000000000000000000081526004016120e690614ff2565b60405180910390fd5b33600c600085815260200190815260200160002060020160006101000a81548173ffffffffffffffffffffffffffffffffffffffff021916908373ffffffffffffffffffffffffffffffffffffffff1602179055506001600c600085815260200190815260200160002060040160006101000a81548160ff0219169083151502179055506000600c600085815260200190815260200160002060010160006101000a81548173ffffffffffffffffffffffffffffffffffffffff021916908373ffffffffffffffffffffffffffffffffffffffff1602179055506121d36009612f6d565b6121de303385612c74565b6121e6611f07565b73ffffffffffffffffffffffffffffffffffffffff166108fc600a549081150290604051600060405180830381858888f1935050505015801561222d573d6000803e3d6000fd5b508073ffffffffffffffffffffffffffffffffffffffff166108fc349081150290604051600060405180830381858888f19350505050158015612274573d6000803e3d6000fd5b50505050565b612282612f83565b80600b8190555050565b600a5481565b600080600080600080600c60008881526020019081526020016000206040518060a0016040529081600082015481526020016001820160009054906101000a900473ffffffffffffffffffffffffffffffffffffffff1673ffffffffffffffffffffffffffffffffffffffff1673ffffffffffffffffffffffffffffffffffffffff1681526020016002820160009054906101000a900473ffffffffffffffffffffffffffffffffffffffff1673ffffffffffffffffffffffffffffffffffffffff1673ffffffffffffffffffffffffffffffffffffffff168152602001600382015481526020016004820160009054906101000a900460ff161515151581525050905080600001518160200151826040015183606001518460800151955095509550955095505091939590929450565b60606123ce82612ad3565b60006006600084815260200190815260200160002080546123ee90614a4b565b80601f016020809104026020016040519081016040528092919081815260200182805461241a90614a4b565b80156124675780601f1061243c57610100808354040283529160200191612467565b820191906000526020600020905b81548152906001019060200180831161244a57829003601f168201915b50505050509050600061247861374c565b9050600081510361248d5781925050506124d0565b6000825111156124c25780826040516020016124aa92919061504e565b604051602081830303815290604052925050506124d0565b6124cb84613763565b925050505b919050565b3373ffffffffffffffffffffffffffffffffffffffff16600c600084815260200190815260200160002060020160009054906101000a900473ffffffffffffffffffffffffffffffffffffffff1673ffffffffffffffffffffffffffffffffffffffff1614612579576040517f08c379a0000000000000000000000000000000000000000000000000000000008152600401612570906150be565b60405180910390fd5b600a5434146125bd576040517f08c379a00000000000000000000000000000000000000000000000000000000081526004016125b49061512a565b60405180910390fd5b6000600c600084815260200190815260200160002060040160006101000a81548160ff02191690831515021790555080600c60008481526020019081526020016000206003018190555033600c600084815260200190815260200160002060010160006101000a81548173ffffffffffffffffffffffffffffffffffffffff021916908373ffffffffffffffffffffffffffffffffffffffff16021790555030600c600084815260200190815260200160002060020160006101000a81548173ffffffffffffffffffffffffffffffffffffffff021916908373ffffffffffffffffffffffffffffffffffffffff1602179055506126bb60096137cb565b6126c6333084612c74565b5050565b600c6020528060005260406000206000915090508060000154908060010160009054906101000a900473ffffffffffffffffffffffffffffffffffffffff16908060020160009054906101000a900473ffffffffffffffffffffffffffffffffffffffff16908060030154908060040160009054906101000a900460ff16905085565b6000600560008473ffffffffffffffffffffffffffffffffffffffff1673ffffffffffffffffffffffffffffffffffffffff16815260200190815260200160002060008373ffffffffffffffffffffffffffffffffffffffff1673ffffffffffffffffffffffffffffffffffffffff16815260200190815260200160002060009054906101000a900460ff16905092915050565b6127e9612f83565b600073ffffffffffffffffffffffffffffffffffffffff168173ffffffffffffffffffffffffffffffffffffffff1603612858576040517f08c379a000000000000000000000000000000000000000000000000000000000815260040161284f906151bc565b60405180910390fd5b612861816132ff565b50565b61286c612f83565b61287581613827565b6128b4576040517f08c379a00000000000000000000000000000000000000000000000000000000081526004016128ab90615228565b60405180910390fd5b6128bd81613868565b600c60008281526020019081526020016000206000808201600090556001820160006101000a81549073ffffffffffffffffffffffffffffffffffffffff02191690556002820160006101000a81549073ffffffffffffffffffffffffffffffffffffffff021916905560038201600090556004820160006101000a81549060ff0219169055505050565b60003073ffffffffffffffffffffffffffffffffffffffff16600c600084815260200190815260200160002060020160009054906101000a900473ffffffffffffffffffffffffffffffffffffffff1673ffffffffffffffffffffffffffffffffffffffff161480156129dc5750600c600083815260200190815260200160002060040160009054906101000a900460ff16155b9050919050565b600081600001549050919050565b60007f80ac58cd000000000000000000000000000000000000000000000000000000007bffffffffffffffffffffffffffffffffffffffffffffffffffffffff1916827bffffffffffffffffffffffffffffffffffffffffffffffffffffffff19161480612abc57507f5b5e139f000000000000000000000000000000000000000000000000000000007bffffffffffffffffffffffffffffffffffffffffffffffffffffffff1916827bffffffffffffffffffffffffffffffffffffffffffffffffffffffff1916145b80612acc5750612acb826138bb565b5b9050919050565b612adc81613827565b612b1b576040517f08c379a0000000000000000000000000000000000000000000000000000000008152600401612b1290614e62565b60405180910390fd5b50565b600033905090565b816004600083815260200190815260200160002060006101000a81548173ffffffffffffffffffffffffffffffffffffffff021916908373ffffffffffffffffffffffffffffffffffffffff160217905550808273ffffffffffffffffffffffffffffffffffffffff16612b9983611d23565b73ffffffffffffffffffffffffffffffffffffffff167f8c5be1e5ebec7d5bd14f71427d1e84f3dd0314c0f7b2291e5b200ac8c7c3b92560405160405180910390a45050565b600080612beb83611d23565b90508073ffffffffffffffffffffffffffffffffffffffff168473ffffffffffffffffffffffffffffffffffffffff161480612c2d5750612c2c818561274d565b5b80612c6b57508373ffffffffffffffffffffffffffffffffffffffff16612c5384610d19565b73ffffffffffffffffffffffffffffffffffffffff16145b91505092915050565b8273ffffffffffffffffffffffffffffffffffffffff16612c9482611d23565b73ffffffffffffffffffffffffffffffffffffffff1614612cea576040517f08c379a0000000000000000000000000000000000000000000000000000000008152600401612ce1906152ba565b60405180910390fd5b600073ffffffffffffffffffffffffffffffffffffffff168273ffffffffffffffffffffffffffffffffffffffff1603612d59576040517f08c379a0000000000000000000000000000000000000000000000000000000008152600401612d509061534c565b60405180910390fd5b612d668383836001613925565b8273ffffffffffffffffffffffffffffffffffffffff16612d8682611d23565b73ffffffffffffffffffffffffffffffffffffffff1614612ddc576040517f08c379a0000000000000000000000000000000000000000000000000000000008152600401612dd3906152ba565b60405180910390fd5b6004600082815260200190815260200160002060006101000a81549073ffffffffffffffffffffffffffffffffffffffff02191690556001600360008573ffffffffffffffffffffffffffffffffffffffff1673ffffffffffffffffffffffffffffffffffffffff168152602001908152602001600020600082825403925050819055506001600360008473ffffffffffffffffffffffffffffffffffffffff1673ffffffffffffffffffffffffffffffffffffffff16815260200190815260200160002060008282540192505081905550816002600083815260200190815260200160002060006101000a81548173ffffffffffffffffffffffffffffffffffffffff021916908373ffffffffffffffffffffffffffffffffffffffff160217905550808273ffffffffffffffffffffffffffffffffffffffff168473ffffffffffffffffffffffffffffffffffffffff167fddf252ad1be2c89b69c2b068fc378daa952ba7f163c4a11628f55a4df523b3ef60405160405180910390a4612f68838383600161392b565b505050565b6001816000016000828254019250508190555050565b612f8b612b1e565b73ffffffffffffffffffffffffffffffffffffffff16612fa9611f07565b73ffffffffffffffffffffffffffffffffffffffff1614612fff576040517f08c379a0000000000000000000000000000000000000000000000000000000008152600401612ff6906153b8565b60405180910390fd5b565b600073ffffffffffffffffffffffffffffffffffffffff168273ffffffffffffffffffffffffffffffffffffffff1603613070576040517f08c379a000000000000000000000000000000000000000000000000000000000815260040161306790615424565b60405180910390fd5b61307981613827565b156130b9576040517f08c379a00000000000000000000000000000000000000000000000000000000081526004016130b090615490565b60405180910390fd5b6130c7600083836001613925565b6130d081613827565b15613110576040517f08c379a000000000000000000000000000000000000000000000000000000000815260040161310790615490565b60405180910390fd5b6001600360008473ffffffffffffffffffffffffffffffffffffffff1673ffffffffffffffffffffffffffffffffffffffff16815260200190815260200160002060008282540192505081905550816002600083815260200190815260200160002060006101000a81548173ffffffffffffffffffffffffffffffffffffffff021916908373ffffffffffffffffffffffffffffffffffffffff160217905550808273ffffffffffffffffffffffffffffffffffffffff16600073ffffffffffffffffffffffffffffffffffffffff167fddf252ad1be2c89b69c2b068fc378daa952ba7f163c4a11628f55a4df523b3ef60405160405180910390a461321a60008383600161392b565b5050565b61322782613827565b613266576040517f08c379a000000000000000000000000000000000000000000000000000000000815260040161325d90615522565b60405180910390fd5b8060066000848152602001908152602001600020908161328691906156ee565b507ff8e1a15aba9398e019f0b49df1a4fde98ee17ae345cb5f6b5e2c27f5033e8ce7826040516132b69190614337565b60405180910390a15050565b60006002600083815260200190815260200160002060009054906101000a900473ffffffffffffffffffffffffffffffffffffffff169050919050565b6000600760009054906101000a900473ffffffffffffffffffffffffffffffffffffffff16905081600760006101000a81548173ffffffffffffffffffffffffffffffffffffffff021916908373ffffffffffffffffffffffffffffffffffffffff1602179055508173ffffffffffffffffffffffffffffffffffffffff168173ffffffffffffffffffffffffffffffffffffffff167f8be0079c531659141344cd1fd0a4f28419497f9722a3daafe3b4186f6b6457e060405160405180910390a35050565b60008111613408576040517f08c379a00000000000000000000000000000000000000000000000000000000081526004016133ff9061580c565b60405180910390fd5b6040518060a001604052808381526020013373ffffffffffffffffffffffffffffffffffffffff1681526020013073ffffffffffffffffffffffffffffffffffffffff16815260200182815260200160001515815250600c60008481526020019081526020016000206000820151816000015560208201518160010160006101000a81548173ffffffffffffffffffffffffffffffffffffffff021916908373ffffffffffffffffffffffffffffffffffffffff16021790555060408201518160020160006101000a81548173ffffffffffffffffffffffffffffffffffffffff021916908373ffffffffffffffffffffffffffffffffffffffff1602179055506060820151816003015560808201518160040160006101000a81548160ff021916908315150217905550905050613541333084612c74565b817fb640004f1d14576d0c209e240cad0410e0d8c0c33a09375861fbadae2588a98d3330846000604051613578949392919061582c565b60405180910390a25050565b8173ffffffffffffffffffffffffffffffffffffffff168373ffffffffffffffffffffffffffffffffffffffff16036135f2576040517f08c379a00000000000000000000000000000000000000000000000000000000081526004016135e9906158bd565b60405180910390fd5b80600560008573ffffffffffffffffffffffffffffffffffffffff1673ffffffffffffffffffffffffffffffffffffffff16815260200190815260200160002060008473ffffffffffffffffffffffffffffffffffffffff1673ffffffffffffffffffffffffffffffffffffffff16815260200190815260200160002060006101000a81548160ff0219169083151502179055508173ffffffffffffffffffffffffffffffffffffffff168373ffffffffffffffffffffffffffffffffffffffff167f17307eab39ab6107e8899845ad3d59bd9653f200f220920489ca2b5937696c31836040516136e3919061415a565b60405180910390a3505050565b6136fb848484612c74565b61370784848484613931565b613746576040517f08c379a000000000000000000000000000000000000000000000000000000000815260040161373d9061594f565b60405180910390fd5b50505050565b606060405180602001604052806000815250905090565b606061376e82612ad3565b600061377861374c565b9050600081511161379857604051806020016040528060008152506137c3565b806137a284613ab8565b6040516020016137b392919061504e565b6040516020818303038152906040525b915050919050565b60008160000154905060008111613817576040517f08c379a000000000000000000000000000000000000000000000000000000000815260040161380e906159bb565b60405180910390fd5b6001810382600001819055505050565b60008073ffffffffffffffffffffffffffffffffffffffff16613849836132c2565b73ffffffffffffffffffffffffffffffffffffffff1614159050919050565b61387181613b86565b600060066000838152602001908152602001600020805461389190614a4b565b9050146138b8576006600082815260200190815260200160002060006138b79190613ea7565b5b50565b60007f01ffc9a7000000000000000000000000000000000000000000000000000000007bffffffffffffffffffffffffffffffffffffffffffffffffffffffff1916827bffffffffffffffffffffffffffffffffffffffffffffffffffffffff1916149050919050565b50505050565b50505050565b60006139528473ffffffffffffffffffffffffffffffffffffffff16613cd4565b15613aab578373ffffffffffffffffffffffffffffffffffffffff1663150b7a0261397b612b1e565b8786866040518563ffffffff1660e01b815260040161399d9493929190615a30565b6020604051808303816000875af19250505080156139d957506040513d601f19601f820116820180604052508101906139d69190615a91565b60015b613a5b573d8060008114613a09576040519150601f19603f3d011682016040523d82523d6000602084013e613a0e565b606091505b506000815103613a53576040517f08c379a0000000000000000000000000000000000000000000000000000000008152600401613a4a9061594f565b60405180910390fd5b805181602001fd5b63150b7a0260e01b7bffffffffffffffffffffffffffffffffffffffffffffffffffffffff1916817bffffffffffffffffffffffffffffffffffffffffffffffffffffffff191614915050613ab0565b600190505b949350505050565b606060006001613ac784613cf7565b01905060008167ffffffffffffffff811115613ae657613ae56144ad565b5b6040519080825280601f01601f191660200182016040528015613b185781602001600182028036833780820191505090505b509050600082602001820190505b600115613b7b578080600190039150507f3031323334353637383961626364656600000000000000000000000000000000600a86061a8153600a8581613b6f57613b6e615abe565b5b04945060008503613b26575b819350505050919050565b6000613b9182611d23565b9050613ba1816000846001613925565b613baa82611d23565b90506004600083815260200190815260200160002060006101000a81549073ffffffffffffffffffffffffffffffffffffffff02191690556001600360008373ffffffffffffffffffffffffffffffffffffffff1673ffffffffffffffffffffffffffffffffffffffff168152602001908152602001600020600082825403925050819055506002600083815260200190815260200160002060006101000a81549073ffffffffffffffffffffffffffffffffffffffff021916905581600073ffffffffffffffffffffffffffffffffffffffff168273ffffffffffffffffffffffffffffffffffffffff167fddf252ad1be2c89b69c2b068fc378daa952ba7f163c4a11628f55a4df523b3ef60405160405180910390a4613cd081600084600161392b565b5050565b6000808273ffffffffffffffffffffffffffffffffffffffff163b119050919050565b600080600090507a184f03e93ff9f4daa797ed6e38ed64bf6a1f0100000000000000008310613d55577a184f03e93ff9f4daa797ed6e38ed64bf6a1f0100000000000000008381613d4b57613d4a615abe565b5b0492506040810190505b6d04ee2d6d415b85acef81000000008310613d92576d04ee2d6d415b85acef81000000008381613d8857613d87615abe565b5b0492506020810190505b662386f26fc100008310613dc157662386f26fc100008381613db757613db6615abe565b5b0492506010810190505b6305f5e1008310613dea576305f5e1008381613de057613ddf615abe565b5b0492506008810190505b6127108310613e0f576127108381613e0557613e04615abe565b5b0492506004810190505b60648310613e325760648381613e2857613e27615abe565b5b0492506002810190505b600a8310613e41576001810190505b80915050919050565b6040518060a0016040528060008152602001600073ffffffffffffffffffffffffffffffffffffffff168152602001600073ffffffffffffffffffffffffffffffffffffffff168152602001600081526020016000151581525090565b508054613eb390614a4b565b6000825580601f10613ec55750613ee4565b601f016020900490600052602060002090810190613ee39190613ee7565b5b50565b5b80821115613f00576000816000905550600101613ee8565b5090565b600081519050919050565b600082825260208201905092915050565b6000819050602082019050919050565b6000819050919050565b613f4381613f30565b82525050565b600073ffffffffffffffffffffffffffffffffffffffff82169050919050565b6000613f7482613f49565b9050919050565b613f8481613f69565b82525050565b60008115159050919050565b613f9f81613f8a565b82525050565b60a082016000820151613fbb6000850182613f3a565b506020820151613fce6020850182613f7b565b506040820151613fe16040850182613f7b565b506060820151613ff46060850182613f3a565b5060808201516140076080850182613f96565b50505050565b60006140198383613fa5565b60a08301905092915050565b6000602082019050919050565b600061403d82613f04565b6140478185613f0f565b935061405283613f20565b8060005b8381101561408357815161406a888261400d565b975061407583614025565b925050600181019050614056565b5085935050505092915050565b600060208201905081810360008301526140aa8184614032565b905092915050565b6000604051905090565b600080fd5b600080fd5b60007fffffffff0000000000000000000000000000000000000000000000000000000082169050919050565b6140fb816140c6565b811461410657600080fd5b50565b600081359050614118816140f2565b92915050565b600060208284031215614134576141336140bc565b5b600061414284828501614109565b91505092915050565b61415481613f8a565b82525050565b600060208201905061416f600083018461414b565b92915050565b600081519050919050565b600082825260208201905092915050565b60005b838110156141af578082015181840152602081019050614194565b60008484015250505050565b6000601f19601f8301169050919050565b60006141d782614175565b6141e18185614180565b93506141f1818560208601614191565b6141fa816141bb565b840191505092915050565b6000602082019050818103600083015261421f81846141cc565b905092915050565b61423081613f30565b811461423b57600080fd5b50565b60008135905061424d81614227565b92915050565b600060208284031215614269576142686140bc565b5b60006142778482850161423e565b91505092915050565b600061428b82613f49565b9050919050565b61429b81614280565b82525050565b60006020820190506142b66000830184614292565b92915050565b6142c581614280565b81146142d057600080fd5b50565b6000813590506142e2816142bc565b92915050565b600080604083850312156142ff576142fe6140bc565b5b600061430d858286016142d3565b925050602061431e8582860161423e565b9150509250929050565b61433181613f30565b82525050565b600060208201905061434c6000830184614328565b92915050565b60008060006060848603121561436b5761436a6140bc565b5b6000614379868287016142d3565b935050602061438a868287016142d3565b925050604061439b8682870161423e565b9150509250925092565b6000602082840312156143bb576143ba6140bc565b5b60006143c9848285016142d3565b91505092915050565b600081519050919050565b600082825260208201905092915050565b6000819050602082019050919050565b600061440a8383613f3a565b60208301905092915050565b6000602082019050919050565b600061442e826143d2565b61443881856143dd565b9350614443836143ee565b8060005b8381101561447457815161445b88826143fe565b975061446683614416565b925050600181019050614447565b5085935050505092915050565b6000602082019050818103600083015261449b8184614423565b905092915050565b600080fd5b600080fd5b7f4e487b7100000000000000000000000000000000000000000000000000000000600052604160045260246000fd5b6144e5826141bb565b810181811067ffffffffffffffff82111715614504576145036144ad565b5b80604052505050565b60006145176140b2565b905061452382826144dc565b919050565b600067ffffffffffffffff821115614543576145426144ad565b5b61454c826141bb565b9050602081019050919050565b82818337600083830152505050565b600061457b61457684614528565b61450d565b905082815260208101848484011115614597576145966144a8565b5b6145a2848285614559565b509392505050565b600082601f8301126145bf576145be6144a3565b5b81356145cf848260208601614568565b91505092915050565b6000602082840312156145ee576145ed6140bc565b5b600082013567ffffffffffffffff81111561460c5761460b6140c1565b5b614618848285016145aa565b91505092915050565b60008060408385031215614638576146376140bc565b5b600083013567ffffffffffffffff811115614656576146556140c1565b5b614662858286016145aa565b92505060206146738582860161423e565b9150509250929050565b61468681613f8a565b811461469157600080fd5b50565b6000813590506146a38161467d565b92915050565b600080604083850312156146c0576146bf6140bc565b5b60006146ce858286016142d3565b92505060206146df85828601614694565b9150509250929050565b600067ffffffffffffffff821115614704576147036144ad565b5b61470d826141bb565b9050602081019050919050565b600061472d614728846146e9565b61450d565b905082815260208101848484011115614749576147486144a8565b5b614754848285614559565b509392505050565b600082601f830112614771576147706144a3565b5b813561478184826020860161471a565b91505092915050565b600080600080608085870312156147a4576147a36140bc565b5b60006147b2878288016142d3565b94505060206147c3878288016142d3565b93505060406147d48782880161423e565b925050606085013567ffffffffffffffff8111156147f5576147f46140c1565b5b6148018782880161475c565b91505092959194509250565b600060a0820190506148226000830188614328565b61482f6020830187614292565b61483c6040830186614292565b6148496060830185614328565b614856608083018461414b565b9695505050505050565b60008060408385031215614877576148766140bc565b5b60006148858582860161423e565b92505060206148968582860161423e565b9150509250929050565b6148a981613f69565b82525050565b600060a0820190506148c46000830188614328565b6148d160208301876148a0565b6148de60408301866148a0565b6148eb6060830185614328565b6148f8608083018461414b565b9695505050505050565b60008060408385031215614919576149186140bc565b5b6000614927858286016142d3565b9250506020614938858286016142d3565b9150509250929050565b7f4e487b7100000000000000000000000000000000000000000000000000000000600052601160045260246000fd5b600061497c82613f30565b915061498783613f30565b925082820190508082111561499f5761499e614942565b5b92915050565b60006149b082613f30565b91507fffffffffffffffffffffffffffffffffffffffffffffffffffffffffffffffff82036149e2576149e1614942565b5b600182019050919050565b7f4e487b7100000000000000000000000000000000000000000000000000000000600052603260045260246000fd5b7f4e487b7100000000000000000000000000000000000000000000000000000000600052602260045260246000fd5b60006002820490506001821680614a6357607f821691505b602082108103614a7657614a75614a1c565b5b50919050565b7f4552433732313a20617070726f76616c20746f2063757272656e74206f776e6560008201527f7200000000000000000000000000000000000000000000000000000000000000602082015250565b6000614ad8602183614180565b9150614ae382614a7c565b604082019050919050565b60006020820190508181036000830152614b0781614acb565b9050919050565b7f4552433732313a20617070726f76652063616c6c6572206973206e6f7420746f60008201527f6b656e206f776e6572206f7220617070726f76656420666f7220616c6c000000602082015250565b6000614b6a603d83614180565b9150614b7582614b0e565b604082019050919050565b60006020820190508181036000830152614b9981614b5d565b9050919050565b6000614bab82613f30565b9150614bb683613f30565b9250828203905081811115614bce57614bcd614942565b5b92915050565b7f4552433732313a2063616c6c6572206973206e6f7420746f6b656e206f776e6560008201527f72206f7220617070726f76656400000000000000000000000000000000000000602082015250565b6000614c30602d83614180565b9150614c3b82614bd4565b604082019050919050565b60006020820190508181036000830152614c5f81614c23565b9050919050565b7f4f6e6c792073656c6c65722063616e2063616e63656c206c697374696e670000600082015250565b6000614c9c601e83614180565b9150614ca782614c66565b602082019050919050565b60006020820190508181036000830152614ccb81614c8f565b9050919050565b7f4974656d206973206e6f742063757272656e746c79206c697374656400000000600082015250565b6000614d08601c83614180565b9150614d1382614cd2565b602082019050919050565b60006020820190508181036000830152614d3781614cfb565b9050919050565b7f4974656d20616c726561647920736f6c64000000000000000000000000000000600082015250565b6000614d74601183614180565b9150614d7f82614d3e565b602082019050919050565b60006020820190508181036000830152614da381614d67565b9050919050565b7f506179206d696e74696e67206665650000000000000000000000000000000000600082015250565b6000614de0600f83614180565b9150614deb82614daa565b602082019050919050565b60006020820190508181036000830152614e0f81614dd3565b9050919050565b7f4552433732313a20696e76616c696420746f6b656e2049440000000000000000600082015250565b6000614e4c601883614180565b9150614e5782614e16565b602082019050919050565b60006020820190508181036000830152614e7b81614e3f565b9050919050565b7f4552433732313a2061646472657373207a65726f206973206e6f74206120766160008201527f6c6964206f776e65720000000000000000000000000000000000000000000000602082015250565b6000614ede602983614180565b9150614ee982614e82565b604082019050919050565b60006020820190508181036000830152614f0d81614ed1565b9050919050565b7f4d75737420706179206d696e74696e6720616e64206c697374696e6720666565600082015250565b6000614f4a602083614180565b9150614f5582614f14565b602082019050919050565b60006020820190508181036000830152614f7981614f3d565b9050919050565b7f5375626d6974207468652061736b696e6720707269636520746f20636f6d706c60008201527f6574652074686520707572636861736500000000000000000000000000000000602082015250565b6000614fdc603083614180565b9150614fe782614f80565b604082019050919050565b6000602082019050818103600083015261500b81614fcf565b9050919050565b600081905092915050565b600061502882614175565b6150328185615012565b9350615042818560208601614191565b80840191505092915050565b600061505a828561501d565b9150615066828461501d565b91508190509392505050565b7f4f6e6c79206f776e65722063616e20726573656c6c0000000000000000000000600082015250565b60006150a8601583614180565b91506150b382615072565b602082019050919050565b600060208201905081810360008301526150d78161509b565b9050919050565b7f4d75737420706179206c697374696e6720666565000000000000000000000000600082015250565b6000615114601483614180565b915061511f826150de565b602082019050919050565b6000602082019050818103600083015261514381615107565b9050919050565b7f4f776e61626c653a206e6577206f776e657220697320746865207a65726f206160008201527f6464726573730000000000000000000000000000000000000000000000000000602082015250565b60006151a6602683614180565b91506151b18261514a565b604082019050919050565b600060208201905081810360008301526151d581615199565b9050919050565b7f546f6b656e20646f6573206e6f74206578697374000000000000000000000000600082015250565b6000615212601483614180565b915061521d826151dc565b602082019050919050565b6000602082019050818103600083015261524181615205565b9050919050565b7f4552433732313a207472616e736665722066726f6d20696e636f72726563742060008201527f6f776e6572000000000000000000000000000000000000000000000000000000602082015250565b60006152a4602583614180565b91506152af82615248565b604082019050919050565b600060208201905081810360008301526152d381615297565b9050919050565b7f4552433732313a207472616e7366657220746f20746865207a65726f2061646460008201527f7265737300000000000000000000000000000000000000000000000000000000602082015250565b6000615336602483614180565b9150615341826152da565b604082019050919050565b6000602082019050818103600083015261536581615329565b9050919050565b7f4f776e61626c653a2063616c6c6572206973206e6f7420746865206f776e6572600082015250565b60006153a2602083614180565b91506153ad8261536c565b602082019050919050565b600060208201905081810360008301526153d181615395565b9050919050565b7f4552433732313a206d696e7420746f20746865207a65726f2061646472657373600082015250565b600061540e602083614180565b9150615419826153d8565b602082019050919050565b6000602082019050818103600083015261543d81615401565b9050919050565b7f4552433732313a20746f6b656e20616c7265616479206d696e74656400000000600082015250565b600061547a601c83614180565b915061548582615444565b602082019050919050565b600060208201905081810360008301526154a98161546d565b9050919050565b7f45524337323155524953746f726167653a2055524920736574206f66206e6f6e60008201527f6578697374656e7420746f6b656e000000000000000000000000000000000000602082015250565b600061550c602e83614180565b9150615517826154b0565b604082019050919050565b6000602082019050818103600083015261553b816154ff565b9050919050565b60008190508160005260206000209050919050565b60006020601f8301049050919050565b600082821b905092915050565b6000600883026155a47fffffffffffffffffffffffffffffffffffffffffffffffffffffffffffffffff82615567565b6155ae8683615567565b95508019841693508086168417925050509392505050565b6000819050919050565b60006155eb6155e66155e184613f30565b6155c6565b613f30565b9050919050565b6000819050919050565b615605836155d0565b615619615611826155f2565b848454615574565b825550505050565b600090565b61562e615621565b6156398184846155fc565b505050565b5b8181101561565d57615652600082615626565b60018101905061563f565b5050565b601f8211156156a25761567381615542565b61567c84615557565b8101602085101561568b578190505b61569f61569785615557565b83018261563e565b50505b505050565b600082821c905092915050565b60006156c5600019846008026156a7565b1980831691505092915050565b60006156de83836156b4565b9150826002028217905092915050565b6156f782614175565b67ffffffffffffffff8111156157105761570f6144ad565b5b61571a8254614a4b565b615725828285615661565b600060209050601f8311600181146157585760008415615746578287015190505b61575085826156d2565b8655506157b8565b601f19841661576686615542565b60005b8281101561578e57848901518255600182019150602085019450602081019050615769565b868310156157ab57848901516157a7601f8916826156b4565b8355505b6001600288020188555050505b505050505050565b7f5072696365206d757374206265206174206c6561737420312077656900000000600082015250565b60006157f6601c83614180565b9150615801826157c0565b602082019050919050565b60006020820190508181036000830152615825816157e9565b9050919050565b60006080820190506158416000830187614292565b61584e6020830186614292565b61585b6040830185614328565b615868606083018461414b565b95945050505050565b7f4552433732313a20617070726f766520746f2063616c6c657200000000000000600082015250565b60006158a7601983614180565b91506158b282615871565b602082019050919050565b600060208201905081810360008301526158d68161589a565b9050919050565b7f4552433732313a207472616e7366657220746f206e6f6e20455243373231526560008201527f63656976657220696d706c656d656e7465720000000000000000000000000000602082015250565b6000615939603283614180565b9150615944826158dd565b604082019050919050565b600060208201905081810360008301526159688161592c565b9050919050565b7f436f756e7465723a2064656372656d656e74206f766572666c6f770000000000600082015250565b60006159a5601b83614180565b91506159b08261596f565b602082019050919050565b600060208201905081810360008301526159d481615998565b9050919050565b600081519050919050565b600082825260208201905092915050565b6000615a02826159db565b615a0c81856159e6565b9350615a1c818560208601614191565b615a25816141bb565b840191505092915050565b6000608082019050615a456000830187614292565b615a526020830186614292565b615a5f6040830185614328565b8181036060830152615a7181846159f7565b905095945050505050565b600081519050615a8b816140f2565b92915050565b600060208284031215615aa757615aa66140bc565b5b6000615ab584828501615a7c565b91505092915050565b7f4e487b7100000000000000000000000000000000000000000000000000000000600052601260045260246000fdfea26469706673582212203828243e29bd70f203f67cbb66812f3eb5f39e531e49cba1f4c481b4084ffadc64736f6c63430008130033",
  "linkReferences": {},
  "deployedLinkReferences": {}
}