{
  "_format": "hh-sol-artifact-1",
  "contractName": "NFTMarketplace",
  "sourceName": "contracts/NFTMarketplace.sol",
  "abi": [
    {
      "inputs": [],
      "stateMutability": "nonpayable",
      "type": "constructor"
    },
    {
      "inputs": [],
      "name": "InsufficientPayment",
      "type": "error"
    },
    {
      "inputs": [],
      "name": "InvalidPrice",
      "type": "error"
    },
    {
      "inputs": [],
      "name": "ItemAlreadySold",
      "type": "error"
    },
    {
      "inputs": [],
      "name": "ItemNotListed",
      "type": "error"
    },
    {
      "inputs": [],
      "name": "NoFunds",
      "type": "error"
    },
    {
      "inputs": [],
      "name": "NotOwner",
      "type": "error"
    },
    {
      "inputs": [],
      "name": "OnlySeller",
      "type": "error"
    },
    {
      "inputs": [],
      "name": "TokenDoesNotExist",
      "type": "error"
    },
    {
      "anonymous": false,
      "inputs": [
        {
          "indexed": true,
          "internalType": "address",
          "name": "user",
          "type": "address"
        }
      ],
      "name": "AddressBlacklisted",
      "type": "event"
    },
    {
      "anonymous": false,
      "inputs": [
        {
          "indexed": true,
          "internalType": "address",
          "name": "user",
          "type": "address"
        }
      ],
      "name": "AddressRemovedFromBlacklist",
      "type": "event"
    },
    {
      "anonymous": false,
      "inputs": [
        {
          "indexed": true,
          "internalType": "address",
          "name": "user",
          "type": "address"
        }
      ],
      "name": "AddressRemovedFromWhitelist",
      "type": "event"
    },
    {
      "anonymous": false,
      "inputs": [
        {
          "indexed": true,
          "internalType": "address",
          "name": "user",
          "type": "address"
        }
      ],
      "name": "AddressWhitelisted",
      "type": "event"
    },
    {
      "anonymous": false,
      "inputs": [
        {
          "indexed": true,
          "internalType": "address",
          "name": "owner",
          "type": "address"
        },
        {
          "indexed": true,
          "internalType": "address",
          "name": "approved",
          "type": "address"
        },
        {
          "indexed": true,
          "internalType": "uint256",
          "name": "tokenId",
          "type": "uint256"
        }
      ],
      "name": "Approval",
      "type": "event"
    },
    {
      "anonymous": false,
      "inputs": [
        {
          "indexed": true,
          "internalType": "address",
          "name": "owner",
          "type": "address"
        },
        {
          "indexed": true,
          "internalType": "address",
          "name": "operator",
          "type": "address"
        },
        {
          "indexed": false,
          "internalType": "bool",
          "name": "approved",
          "type": "bool"
        }
      ],
      "name": "ApprovalForAll",
      "type": "event"
    },
    {
      "anonymous": false,
      "inputs": [
        {
          "indexed": false,
          "internalType": "uint256",
          "name": "_fromTokenId",
          "type": "uint256"
        },
        {
          "indexed": false,
          "internalType": "uint256",
          "name": "_toTokenId",
          "type": "uint256"
        }
      ],
      "name": "BatchMetadataUpdate",
      "type": "event"
    },
    {
      "anonymous": false,
      "inputs": [
        {
          "indexed": true,
          "internalType": "uint256",
          "name": "tokenId",
          "type": "uint256"
        },
        {
          "indexed": false,
          "internalType": "address",
          "name": "seller",
          "type": "address"
        },
        {
          "indexed": false,
          "internalType": "address",
          "name": "owner",
          "type": "address"
        },
        {
          "indexed": false,
          "internalType": "uint256",
          "name": "price",
          "type": "uint256"
        },
        {
          "indexed": false,
          "internalType": "bool",
          "name": "sold",
          "type": "bool"
        }
      ],
      "name": "MarketItemCreated",
      "type": "event"
    },
    {
      "anonymous": false,
      "inputs": [
        {
          "indexed": false,
          "internalType": "uint256",
          "name": "_tokenId",
          "type": "uint256"
        }
      ],
      "name": "MetadataUpdate",
      "type": "event"
    },
    {
      "anonymous": false,
      "inputs": [
        {
          "indexed": true,
          "internalType": "address",
          "name": "previousOwner",
          "type": "address"
        },
        {
          "indexed": true,
          "internalType": "address",
          "name": "newOwner",
          "type": "address"
        }
      ],
      "name": "OwnershipTransferred",
      "type": "event"
    },
    {
      "anonymous": false,
      "inputs": [
        {
          "indexed": false,
          "internalType": "address",
          "name": "account",
          "type": "address"
        }
      ],
      "name": "Paused",
      "type": "event"
    },
    {
      "anonymous": false,
      "inputs": [
        {
          "indexed": true,
          "internalType": "address",
          "name": "from",
          "type": "address"
        },
        {
          "indexed": true,
          "internalType": "address",
          "name": "to",
          "type": "address"
        },
        {
          "indexed": true,
          "internalType": "uint256",
          "name": "tokenId",
          "type": "uint256"
        }
      ],
      "name": "Transfer",
      "type": "event"
    },
    {
      "anonymous": false,
      "inputs": [
        {
          "indexed": false,
          "internalType": "address",
          "name": "account",
          "type": "address"
        }
      ],
      "name": "Unpaused",
      "type": "event"
    },
    {
      "inputs": [
        {
          "internalType": "address",
          "name": "user",
          "type": "address"
        }
      ],
      "name": "addToBlacklist",
      "outputs": [],
      "stateMutability": "nonpayable",
      "type": "function"
    },
    {
      "inputs": [
        {
          "internalType": "address",
          "name": "user",
          "type": "address"
        }
      ],
      "name": "addToWhitelist",
      "outputs": [],
      "stateMutability": "nonpayable",
      "type": "function"
    },
    {
      "inputs": [
        {
          "internalType": "address",
          "name": "to",
          "type": "address"
        },
        {
          "internalType": "uint256",
          "name": "tokenId",
          "type": "uint256"
        }
      ],
      "name": "approve",
      "outputs": [],
      "stateMutability": "nonpayable",
      "type": "function"
    },
    {
      "inputs": [
        {
          "internalType": "address",
          "name": "owner",
          "type": "address"
        }
      ],
      "name": "balanceOf",
      "outputs": [
        {
          "internalType": "uint256",
          "name": "",
          "type": "uint256"
        }
      ],
      "stateMutability": "view",
      "type": "function"
    },
    {
      "inputs": [
        {
          "internalType": "uint256",
          "name": "tokenId",
          "type": "uint256"
        }
      ],
      "name": "cancelListing",
      "outputs": [],
      "stateMutability": "nonpayable",
      "type": "function"
    },
    {
      "inputs": [
        {
          "internalType": "uint256",
          "name": "tokenId",
          "type": "uint256"
        }
      ],
      "name": "createMarketSale",
      "outputs": [],
      "stateMutability": "payable",
      "type": "function"
    },
    {
      "inputs": [
        {
          "internalType": "string",
          "name": "tokenURI",
          "type": "string"
        },
        {
          "internalType": "uint256",
          "name": "price",
          "type": "uint256"
        }
      ],
      "name": "createToken",
      "outputs": [
        {
          "internalType": "uint256",
          "name": "",
          "type": "uint256"
        }
      ],
      "stateMutability": "payable",
      "type": "function"
    },
    {
      "inputs": [
        {
          "internalType": "uint256",
          "name": "tokenId",
          "type": "uint256"
        }
      ],
      "name": "deleteNFT",
      "outputs": [],
      "stateMutability": "nonpayable",
      "type": "function"
    },
    {
      "inputs": [],
      "name": "fetchAllNFTs",
      "outputs": [
        {
          "components": [
            {
              "internalType": "uint256",
              "name": "tokenId",
              "type": "uint256"
            },
            {
              "internalType": "address payable",
              "name": "seller",
              "type": "address"
            },
            {
              "internalType": "address payable",
              "name": "owner",
              "type": "address"
            },
            {
              "internalType": "uint256",
              "name": "price",
              "type": "uint256"
            },
            {
              "internalType": "bool",
              "name": "sold",
              "type": "bool"
            }
          ],
          "internalType": "struct NFTMarketplace.MarketItem[]",
          "name": "",
          "type": "tuple[]"
        }
      ],
      "stateMutability": "view",
      "type": "function"
    },
    {
      "inputs": [],
      "name": "fetchItemsListed",
      "outputs": [
        {
          "components": [
            {
              "internalType": "uint256",
              "name": "tokenId",
              "type": "uint256"
            },
            {
              "internalType": "address payable",
              "name": "seller",
              "type": "address"
            },
            {
              "internalType": "address payable",
              "name": "owner",
              "type": "address"
            },
            {
              "internalType": "uint256",
              "name": "price",
              "type": "uint256"
            },
            {
              "internalType": "bool",
              "name": "sold",
              "type": "bool"
            }
          ],
          "internalType": "struct NFTMarketplace.MarketItem[]",
          "name": "",
          "type": "tuple[]"
        }
      ],
      "stateMutability": "view",
      "type": "function"
    },
    {
      "inputs": [],
      "name": "fetchMarketItems",
      "outputs": [
        {
          "components": [
            {
              "internalType": "uint256",
              "name": "tokenId",
              "type": "uint256"
            },
            {
              "internalType": "address payable",
              "name": "seller",
              "type": "address"
            },
            {
              "internalType": "address payable",
              "name": "owner",
              "type": "address"
            },
            {
              "internalType": "uint256",
              "name": "price",
              "type": "uint256"
            },
            {
              "internalType": "bool",
              "name": "sold",
              "type": "bool"
            }
          ],
          "internalType": "struct NFTMarketplace.MarketItem[]",
          "name": "",
          "type": "tuple[]"
        }
      ],
      "stateMutability": "view",
      "type": "function"
    },
    {
      "inputs": [],
      "name": "fetchMyNFTs",
      "outputs": [
        {
          "components": [
            {
              "internalType": "uint256",
              "name": "tokenId",
              "type": "uint256"
            },
            {
              "internalType": "address payable",
              "name": "seller",
              "type": "address"
            },
            {
              "internalType": "address payable",
              "name": "owner",
              "type": "address"
            },
            {
              "internalType": "uint256",
              "name": "price",
              "type": "uint256"
            },
            {
              "internalType": "bool",
              "name": "sold",
              "type": "bool"
            }
          ],
          "internalType": "struct NFTMarketplace.MarketItem[]",
          "name": "",
          "type": "tuple[]"
        }
      ],
      "stateMutability": "view",
      "type": "function"
    },
    {
      "inputs": [],
      "name": "getAdminFunds",
      "outputs": [
        {
          "internalType": "uint256",
          "name": "",
          "type": "uint256"
        }
      ],
      "stateMutability": "view",
      "type": "function"
    },
    {
      "inputs": [],
      "name": "getAllUsers",
      "outputs": [
        {
          "internalType": "address[]",
          "name": "",
          "type": "address[]"
        }
      ],
      "stateMutability": "view",
      "type": "function"
    },
    {
      "inputs": [
        {
          "internalType": "uint256",
          "name": "tokenId",
          "type": "uint256"
        }
      ],
      "name": "getApproved",
      "outputs": [
        {
          "internalType": "address",
          "name": "",
          "type": "address"
        }
      ],
      "stateMutability": "view",
      "type": "function"
    },
    {
      "inputs": [],
      "name": "getListingPrice",
      "outputs": [
        {
          "internalType": "uint256",
          "name": "",
          "type": "uint256"
        }
      ],
      "stateMutability": "view",
      "type": "function"
    },
    {
      "inputs": [
        {
          "internalType": "uint256",
          "name": "tokenId",
          "type": "uint256"
        }
      ],
      "name": "getMarketItem",
      "outputs": [
        {
          "internalType": "uint256",
          "name": "",
          "type": "uint256"
        },
        {
          "internalType": "address",
          "name": "",
          "type": "address"
        },
        {
          "internalType": "address",
          "name": "",
          "type": "address"
        },
        {
          "internalType": "uint256",
          "name": "",
          "type": "uint256"
        },
        {
          "internalType": "bool",
          "name": "",
          "type": "bool"
        }
      ],
      "stateMutability": "view",
      "type": "function"
    },
    {
      "inputs": [
        {
          "internalType": "uint256",
          "name": "tokenId",
          "type": "uint256"
        }
      ],
      "name": "getMarketItemOwner",
      "outputs": [
        {
          "internalType": "address",
          "name": "",
          "type": "address"
        }
      ],
      "stateMutability": "view",
      "type": "function"
    },
    {
      "inputs": [],
      "name": "getMintingFee",
      "outputs": [
        {
          "internalType": "uint256",
          "name": "",
          "type": "uint256"
        }
      ],
      "stateMutability": "view",
      "type": "function"
    },
    {
      "inputs": [],
      "name": "getMyBalance",
      "outputs": [
        {
          "internalType": "uint256",
          "name": "",
          "type": "uint256"
        }
      ],
      "stateMutability": "view",
      "type": "function"
    },
    {
      "inputs": [],
      "name": "getMyListings",
      "outputs": [
        {
          "components": [
            {
              "internalType": "uint256",
              "name": "tokenId",
              "type": "uint256"
            },
            {
              "internalType": "address payable",
              "name": "seller",
              "type": "address"
            },
            {
              "internalType": "address payable",
              "name": "owner",
              "type": "address"
            },
            {
              "internalType": "uint256",
              "name": "price",
              "type": "uint256"
            },
            {
              "internalType": "bool",
              "name": "sold",
              "type": "bool"
            }
          ],
          "internalType": "struct NFTMarketplace.MarketItem[]",
          "name": "",
          "type": "tuple[]"
        }
      ],
      "stateMutability": "view",
      "type": "function"
    },
    {
      "inputs": [
        {
          "internalType": "address",
          "name": "user",
          "type": "address"
        }
      ],
      "name": "getOwnedTokenIds",
      "outputs": [
        {
          "internalType": "uint256[]",
          "name": "",
          "type": "uint256[]"
        }
      ],
      "stateMutability": "view",
      "type": "function"
    },
    {
      "inputs": [],
      "name": "getTotalTokens",
      "outputs": [
        {
          "internalType": "uint256",
          "name": "",
          "type": "uint256"
        }
      ],
      "stateMutability": "view",
      "type": "function"
    },
    {
      "inputs": [
        {
          "internalType": "uint256",
          "name": "",
          "type": "uint256"
        }
      ],
      "name": "idToMarketItem",
      "outputs": [
        {
          "internalType": "uint256",
          "name": "tokenId",
          "type": "uint256"
        },
        {
          "internalType": "address payable",
          "name": "seller",
          "type": "address"
        },
        {
          "internalType": "address payable",
          "name": "owner",
          "type": "address"
        },
        {
          "internalType": "uint256",
          "name": "price",
          "type": "uint256"
        },
        {
          "internalType": "bool",
          "name": "sold",
          "type": "bool"
        }
      ],
      "stateMutability": "view",
      "type": "function"
    },
    {
      "inputs": [
        {
          "internalType": "address",
          "name": "owner",
          "type": "address"
        },
        {
          "internalType": "address",
          "name": "operator",
          "type": "address"
        }
      ],
      "name": "isApprovedForAll",
      "outputs": [
        {
          "internalType": "bool",
          "name": "",
          "type": "bool"
        }
      ],
      "stateMutability": "view",
      "type": "function"
    },
    {
      "inputs": [
        {
          "internalType": "address",
          "name": "user",
          "type": "address"
        }
      ],
      "name": "isBlacklisted",
      "outputs": [
        {
          "internalType": "bool",
          "name": "",
          "type": "bool"
        }
      ],
      "stateMutability": "view",
      "type": "function"
    },
    {
      "inputs": [
        {
          "internalType": "uint256",
          "name": "tokenId",
          "type": "uint256"
        }
      ],
      "name": "isListed",
      "outputs": [
        {
          "internalType": "bool",
          "name": "",
          "type": "bool"
        }
      ],
      "stateMutability": "view",
      "type": "function"
    },
    {
      "inputs": [
        {
          "internalType": "address",
          "name": "user",
          "type": "address"
        }
      ],
      "name": "isWhitelisted",
      "outputs": [
        {
          "internalType": "bool",
          "name": "",
          "type": "bool"
        }
      ],
      "stateMutability": "view",
      "type": "function"
    },
    {
      "inputs": [],
      "name": "listingPrice",
      "outputs": [
        {
          "internalType": "uint256",
          "name": "",
          "type": "uint256"
        }
      ],
      "stateMutability": "view",
      "type": "function"
    },
    {
      "inputs": [
        {
          "internalType": "string",
          "name": "tokenURI",
          "type": "string"
        }
      ],
      "name": "mintOnly",
      "outputs": [
        {
          "internalType": "uint256",
          "name": "",
          "type": "uint256"
        }
      ],
      "stateMutability": "payable",
      "type": "function"
    },
    {
      "inputs": [],
      "name": "mintingFee",
      "outputs": [
        {
          "internalType": "uint256",
          "name": "",
          "type": "uint256"
        }
      ],
      "stateMutability": "view",
      "type": "function"
    },
    {
      "inputs": [],
      "name": "name",
      "outputs": [
        {
          "internalType": "string",
          "name": "",
          "type": "string"
        }
      ],
      "stateMutability": "view",
      "type": "function"
    },
    {
      "inputs": [],
      "name": "owner",
      "outputs": [
        {
          "internalType": "address",
          "name": "",
          "type": "address"
        }
      ],
      "stateMutability": "view",
      "type": "function"
    },
    {
      "inputs": [
        {
          "internalType": "uint256",
          "name": "tokenId",
          "type": "uint256"
        }
      ],
      "name": "ownerOf",
      "outputs": [
        {
          "internalType": "address",
          "name": "",
          "type": "address"
        }
      ],
      "stateMutability": "view",
      "type": "function"
    },
    {
      "inputs": [],
      "name": "pauseContract",
      "outputs": [],
      "stateMutability": "nonpayable",
      "type": "function"
    },
    {
      "inputs": [],
      "name": "paused",
      "outputs": [
        {
          "internalType": "bool",
          "name": "",
          "type": "bool"
        }
      ],
      "stateMutability": "view",
      "type": "function"
    },
    {
      "inputs": [
        {
          "internalType": "address",
          "name": "user",
          "type": "address"
        }
      ],
      "name": "removeFromBlacklist",
      "outputs": [],
      "stateMutability": "nonpayable",
      "type": "function"
    },
    {
      "inputs": [
        {
          "internalType": "address",
          "name": "user",
          "type": "address"
        }
      ],
      "name": "removeFromWhitelist",
      "outputs": [],
      "stateMutability": "nonpayable",
      "type": "function"
    },
    {
      "inputs": [],
      "name": "renounceOwnership",
      "outputs": [],
      "stateMutability": "nonpayable",
      "type": "function"
    },
    {
      "inputs": [
        {
          "internalType": "uint256",
          "name": "tokenId",
          "type": "uint256"
        },
        {
          "internalType": "uint256",
          "name": "price",
          "type": "uint256"
        }
      ],
      "name": "resellToken",
      "outputs": [],
      "stateMutability": "payable",
      "type": "function"
    },
    {
      "inputs": [
        {
          "internalType": "address",
          "name": "from",
          "type": "address"
        },
        {
          "internalType": "address",
          "name": "to",
          "type": "address"
        },
        {
          "internalType": "uint256",
          "name": "tokenId",
          "type": "uint256"
        }
      ],
      "name": "safeTransferFrom",
      "outputs": [],
      "stateMutability": "nonpayable",
      "type": "function"
    },
    {
      "inputs": [
        {
          "internalType": "address",
          "name": "from",
          "type": "address"
        },
        {
          "internalType": "address",
          "name": "to",
          "type": "address"
        },
        {
          "internalType": "uint256",
          "name": "tokenId",
          "type": "uint256"
        },
        {
          "internalType": "bytes",
          "name": "data",
          "type": "bytes"
        }
      ],
      "name": "safeTransferFrom",
      "outputs": [],
      "stateMutability": "nonpayable",
      "type": "function"
    },
    {
      "inputs": [
        {
          "internalType": "address",
          "name": "operator",
          "type": "address"
        },
        {
          "internalType": "bool",
          "name": "approved",
          "type": "bool"
        }
      ],
      "name": "setApprovalForAll",
      "outputs": [],
      "stateMutability": "nonpayable",
      "type": "function"
    },
    {
      "inputs": [
        {
          "internalType": "bool",
          "name": "enabled",
          "type": "bool"
        }
      ],
      "name": "setWhitelistEnabled",
      "outputs": [],
      "stateMutability": "nonpayable",
      "type": "function"
    },
    {
      "inputs": [
        {
          "internalType": "bytes4",
          "name": "interfaceId",
          "type": "bytes4"
        }
      ],
      "name": "supportsInterface",
      "outputs": [
        {
          "internalType": "bool",
          "name": "",
          "type": "bool"
        }
      ],
      "stateMutability": "view",
      "type": "function"
    },
    {
      "inputs": [],
      "name": "symbol",
      "outputs": [
        {
          "internalType": "string",
          "name": "",
          "type": "string"
        }
      ],
      "stateMutability": "view",
      "type": "function"
    },
    {
      "inputs": [
        {
          "internalType": "uint256",
          "name": "tokenId",
          "type": "uint256"
        }
      ],
      "name": "tokenURI",
      "outputs": [
        {
          "internalType": "string",
          "name": "",
          "type": "string"
        }
      ],
      "stateMutability": "view",
      "type": "function"
    },
    {
      "inputs": [
        {
          "internalType": "address",
          "name": "from",
          "type": "address"
        },
        {
          "internalType": "address",
          "name": "to",
          "type": "address"
        },
        {
          "internalType": "uint256",
          "name": "tokenId",
          "type": "uint256"
        }
      ],
      "name": "transferFrom",
      "outputs": [],
      "stateMutability": "nonpayable",
      "type": "function"
    },
    {
      "inputs": [
        {
          "internalType": "address",
          "name": "newOwner",
          "type": "address"
        }
      ],
      "name": "transferOwnership",
      "outputs": [],
      "stateMutability": "nonpayable",
      "type": "function"
    },
    {
      "inputs": [],
      "name": "unpauseContract",
      "outputs": [],
      "stateMutability": "nonpayable",
      "type": "function"
    },
    {
      "inputs": [
        {
          "internalType": "uint256",
          "name": "_listingPrice",
          "type": "uint256"
        }
      ],
      "name": "updateListingPrice",
      "outputs": [],
      "stateMutability": "nonpayable",
      "type": "function"
    },
    {
      "inputs": [
        {
          "internalType": "uint256",
          "name": "_mintingFee",
          "type": "uint256"
        }
      ],
      "name": "updateMintingFee",
      "outputs": [],
      "stateMutability": "nonpayable",
      "type": "function"
    },
    {
      "inputs": [
        {
          "internalType": "uint256",
          "name": "tokenId",
          "type": "uint256"
        },
        {
          "internalType": "uint256",
          "name": "newPrice",
          "type": "uint256"
        }
      ],
      "name": "updatePrice",
      "outputs": [],
      "stateMutability": "nonpayable",
      "type": "function"
    },
    {
      "inputs": [],
      "name": "whitelistEnabled",
      "outputs": [
        {
          "internalType": "bool",
          "name": "",
          "type": "bool"
        }
      ],
      "stateMutability": "view",
      "type": "function"
    },
    {
      "inputs": [],
      "name": "withdrawAdminFunds",
      "outputs": [],
      "stateMutability": "nonpayable",
      "type": "function"
    },
    {
      "inputs": [],
      "name": "withdrawMyFunds",
      "outputs": [],
      "stateMutability": "nonpayable",
      "type": "function"
    }
  ],
  "bytecode": "0x60806040526658d15e17628000600b556611c37937e08000600c556014805460ff191690553480156200003157600080fd5b50604051806040016040528060128152602001714d61726b6574706c61636520546f6b656e7360701b8152506040518060400160405280600381526020016213541560ea1b81525081600090816200008a9190620001c4565b506001620000998282620001c4565b505050620000b6620000b0620000c960201b60201c565b620000cd565b6007805460ff60a01b1916905562000290565b3390565b600780546001600160a01b038381166001600160a01b0319831681179093556040519116919082907f8be0079c531659141344cd1fd0a4f28419497f9722a3daafe3b4186f6b6457e090600090a35050565b634e487b7160e01b600052604160045260246000fd5b600181811c908216806200014a57607f821691505b6020821081036200016b57634e487b7160e01b600052602260045260246000fd5b50919050565b601f821115620001bf57600081815260208120601f850160051c810160208610156200019a5750805b601f850160051c820191505b81811015620001bb57828155600101620001a6565b5050505b505050565b81516001600160401b03811115620001e057620001e06200011f565b620001f881620001f1845462000135565b8462000171565b602080601f831160018114620002305760008415620002175750858301515b600019600386901b1c1916600185901b178555620001bb565b600085815260208120601f198616915b82811015620002615788860151825594840194600190910190840162000240565b5085821015620002805787850151600019600388901b60f8161c191681555b5050505050600190811b01905550565b613a1f80620002a06000396000f3fe60806040526004361061036a5760003560e01c806370a08231116101c6578063c0275a25116100f7578063e61a70c011610095578063f2fde38b1161006f578063f2fde38b14610a85578063f687ed5714610aa5578063fcce488314610ac5578063fe575a8714610ae557600080fd5b8063e61a70c0146109ce578063e985e9c514610a27578063f08b82e614610a7057600080fd5b8063c87b56dd116100d1578063c87b56dd14610959578063e219fc7514610979578063e2842d791461098c578063e43252d7146109ae57600080fd5b8063c0275a251461086c578063c78f19f91461088c578063c7be7a49146108a257600080fd5b8063a22cb46511610164578063b33712c51161013e578063b33712c51461080f578063b59d88a914610824578063b88d4fde14610839578063be9af5361461085957600080fd5b8063a22cb46514610796578063ae677aa3146107b6578063b306387e146107d657600080fd5b806382367b2d116101a057806382367b2d146107235780638ab1d681146107435780638da5cb5b1461076357806395d89b411461078157600080fd5b806370a08231146106db578063715018a6146106fb57806372b3b6201461071057600080fd5b806342842e0e116102a057806351fb012d1161023e5780635c975abb116102185780635c975abb146106745780635cd567e8146106935780636352211e146106a657806364613807146106c657600080fd5b806351fb012d14610624578063537df3b61461063e5780635a64ad951461065e57600080fd5b806345f8fa801161027a57806345f8fa80146105ab5780634935e740146105c05780634c738909146105d55780634fac7e41146105f757600080fd5b806342842e0e14610556578063439766ce1461057657806344337ea11461058b57600080fd5b80630f08efe01161030d57806323b872dd116102e757806323b872dd146104c8578063305a67a8146104e85780633af32abf146105085780633f0e317b1461054157600080fd5b80630f08efe01461048957806312e855851461049e578063202e3740146104b357600080fd5b806306fdde031161034957806306fdde03146103ec578063081812fc1461040e578063095ea7b3146104465780630b8f11b11461046657600080fd5b8062754eea1461036f57806301ffc9a71461039a578063052d9e7e146103ca575b600080fd5b34801561037b57600080fd5b50610384610b1e565b60405161039191906131e4565b60405180910390f35b3480156103a657600080fd5b506103ba6103b5366004613276565b610d37565b6040519015158152602001610391565b3480156103d657600080fd5b506103ea6103e53660046132a3565b610d62565b005b3480156103f857600080fd5b50610401610d7d565b604051610391919061330e565b34801561041a57600080fd5b5061042e610429366004613321565b610e0f565b6040516001600160a01b039091168152602001610391565b34801561045257600080fd5b506103ea610461366004613351565b610e36565b34801561047257600080fd5b5061047b610f50565b604051908152602001610391565b34801561049557600080fd5b50610384610f61565b3480156104aa57600080fd5b50600b5461047b565b3480156104bf57600080fd5b506103846110d4565b3480156104d457600080fd5b506103ea6104e336600461337b565b611284565b3480156104f457600080fd5b506103ea610503366004613321565b6112b5565b34801561051457600080fd5b506103ba6105233660046133b7565b6001600160a01b031660009081526012602052604090205460ff1690565b34801561054d57600080fd5b50610384611393565b34801561056257600080fd5b506103ea61057136600461337b565b6114af565b34801561058257600080fd5b506103ea6114ca565b34801561059757600080fd5b506103ea6105a63660046133b7565b6114dc565b3480156105b757600080fd5b50610384611530565b3480156105cc57600080fd5b506103ea6116e0565b3480156105e157600080fd5b50336000908152600e602052604090205461047b565b34801561060357600080fd5b506106176106123660046133b7565b61174c565b60405161039191906133d2565b34801561063057600080fd5b506014546103ba9060ff1681565b34801561064a57600080fd5b506103ea6106593660046133b7565b61187a565b34801561066a57600080fd5b5061047b600c5481565b34801561068057600080fd5b50600754600160a01b900460ff166103ba565b61047b6106a13660046134c2565b6118cb565b3480156106b257600080fd5b5061042e6106c1366004613321565b6119ba565b3480156106d257600080fd5b506103ea611a1a565b3480156106e757600080fd5b5061047b6106f63660046133b7565b611a92565b34801561070757600080fd5b506103ea611b18565b61047b61071e3660046134f7565b611b2a565b34801561072f57600080fd5b506103ea61073e36600461353c565b611c3c565b34801561074f57600080fd5b506103ea61075e3660046133b7565b611cf1565b34801561076f57600080fd5b506007546001600160a01b031661042e565b34801561078d57600080fd5b50610401611d42565b3480156107a257600080fd5b506103ea6107b136600461355e565b611d51565b3480156107c257600080fd5b506103ea6107d1366004613321565b611d5c565b3480156107e257600080fd5b5061042e6107f1366004613321565b6000908152600d60205260409020600201546001600160a01b031690565b34801561081b57600080fd5b506103ea611d69565b34801561083057600080fd5b50600c5461047b565b34801561084557600080fd5b506103ea610854366004613591565b611d79565b6103ea610867366004613321565b611db1565b34801561087857600080fd5b506103ea610887366004613321565b611f19565b34801561089857600080fd5b5061047b600b5481565b3480156108ae57600080fd5b506109236108bd366004613321565b6000908152600d6020908152604091829020825160a081018452815480825260018301546001600160a01b0390811694830185905260028401541694820185905260038301546060830181905260049093015460ff161515608090920182905294929392565b604080519586526001600160a01b039485166020870152929093169184019190915260608301521515608082015260a001610391565b34801561096557600080fd5b50610401610974366004613321565b611f26565b6103ea61098736600461353c565b612036565b34801561099857600080fd5b506109a1612186565b604051610391919061360d565b3480156109ba57600080fd5b506103ea6109c93660046133b7565b6121ef565b3480156109da57600080fd5b506109236109e9366004613321565b600d602052600090815260409020805460018201546002830154600384015460049094015492936001600160a01b0392831693929091169160ff1685565b348015610a3357600080fd5b506103ba610a4236600461364e565b6001600160a01b03918216600090815260056020908152604080832093909416825291909152205460ff1690565b348015610a7c57600080fd5b5061047b612243565b348015610a9157600080fd5b506103ea610aa03660046133b7565b612253565b348015610ab157600080fd5b506103ea610ac0366004613321565b6122cc565b348015610ad157600080fd5b506103ba610ae0366004613321565b612358565b348015610af157600080fd5b506103ba610b003660046133b7565b6001600160a01b031660009081526013602052604090205460ff1690565b60606000610b2b60085490565b90506000805b82811015610bbb5733600d6000610b4984600161368e565b81526020810191909152604001600020600101546001600160a01b0316148015610b965750600d6000610b7d83600161368e565b815260208101919091526040016000206004015460ff16155b15610ba95781610ba5816136a1565b9250505b80610bb3816136a1565b915050610b31565b5060008167ffffffffffffffff811115610bd757610bd7613416565b604051908082528060200260200182016040528015610c1057816020015b610bfd613168565b815260200190600190039081610bf55790505b5090506000805b84811015610d2d5733600d6000610c2f84600161368e565b81526020810191909152604001600020600101546001600160a01b0316148015610c7c5750600d6000610c6383600161368e565b815260208101919091526040016000206004015460ff16155b15610d1b57600d6000610c9083600161368e565b81526020808201929092526040908101600020815160a0810183528154815260018201546001600160a01b0390811694820194909452600282015490931691830191909152600381015460608301526004015460ff16151560808201528351849084908110610d0157610d016136ba565b60200260200101819052508180610d17906136a1565b9250505b80610d25816136a1565b915050610c17565b5090949350505050565b60006001600160e01b03198216632483248360e11b1480610d5c5750610d5c82612396565b92915050565b610d6a6123e6565b6014805460ff1916911515919091179055565b606060008054610d8c906136d0565b80601f0160208091040260200160405190810160405280929190818152602001828054610db8906136d0565b8015610e055780601f10610dda57610100808354040283529160200191610e05565b820191906000526020600020905b815481529060010190602001808311610de857829003601f168201915b5050505050905090565b6000610e1a82612440565b506000908152600460205260409020546001600160a01b031690565b6000610e41826119ba565b9050806001600160a01b0316836001600160a01b031603610eb35760405162461bcd60e51b815260206004820152602160248201527f4552433732313a20617070726f76616c20746f2063757272656e74206f776e656044820152603960f91b60648201526084015b60405180910390fd5b336001600160a01b0382161480610ecf5750610ecf8133610a42565b610f415760405162461bcd60e51b815260206004820152603d60248201527f4552433732313a20617070726f76652063616c6c6572206973206e6f7420746f60448201527f6b656e206f776e6572206f7220617070726f76656420666f7220616c6c0000006064820152608401610eaa565b610f4b838361249f565b505050565b6000610f5a6123e6565b50600f5490565b60606000610f6e60085490565b90506000610f7b60095490565b600854610f88919061370a565b90506000808267ffffffffffffffff811115610fa657610fa6613416565b604051908082528060200260200182016040528015610fdf57816020015b610fcc613168565b815260200190600190039081610fc45790505b50905060005b848110156110cb5730600d6000610ffd84600161368e565b81526020810191909152604001600020600201546001600160a01b0316036110b957600d600061102e83600161368e565b81526020808201929092526040908101600020815160a0810183528154815260018201546001600160a01b0390811694820194909452600282015490931691830191909152600381015460608301526004015460ff1615156080820152825183908590811061109f5761109f6136ba565b602002602001018190525082806110b5906136a1565b9350505b806110c3816136a1565b915050610fe5565b50949350505050565b606060006110e160085490565b905060008060005b838110156111435733600d600061110184600161368e565b81526020810191909152604001600020600201546001600160a01b031603611131578261112d816136a1565b9350505b8061113b816136a1565b9150506110e9565b5060008267ffffffffffffffff81111561115f5761115f613416565b60405190808252806020026020018201604052801561119857816020015b611185613168565b81526020019060019003908161117d5790505b50905060005b848110156110cb5733600d60006111b684600161368e565b81526020810191909152604001600020600201546001600160a01b03160361127257600d60006111e783600161368e565b81526020808201929092526040908101600020815160a0810183528154815260018201546001600160a01b0390811694820194909452600282015490931691830191909152600381015460608301526004015460ff16151560808201528251839085908110611258576112586136ba565b6020026020010181905250828061126e906136a1565b9350505b8061127c816136a1565b91505061119e565b61128e338261250d565b6112aa5760405162461bcd60e51b8152600401610eaa9061371d565b610f4b83838361258b565b6000818152600d6020526040902060018101546001600160a01b031633146112f0576040516342e8fb9360e11b815260040160405180910390fd5b60028101546001600160a01b0316301461131d5760405163d46afe9f60e01b815260040160405180910390fd5b600481015460ff16156113435760405163898c8e6760e01b815260040160405180910390fd5b6002810180546001600160a01b031990811633179091556001808301805490921690915560048201805460ff19169091179055611384600980546001019055565b61138f30338461258b565b5050565b606060006113a060085490565b905060008167ffffffffffffffff8111156113bd576113bd613416565b6040519080825280602002602001820160405280156113f657816020015b6113e3613168565b8152602001906001900390816113db5790505b50905060005b828110156114a8576000600d8161141484600161368e565b81526020808201929092526040908101600020815160a0810183528154815260018201546001600160a01b039081169482019490945260028201549093169183019190915260038101546060830152600481015460ff16151560808301528451909250849084908110611489576114896136ba565b60200260200101819052505080806114a0906136a1565b9150506113fc565b5092915050565b610f4b83838360405180602001604052806000815250611d79565b6114d26123e6565b6114da6126ef565b565b6114e46123e6565b6001600160a01b038116600081815260136020526040808220805460ff19166001179055517fdaf49ab9345b6cb75bcb5a7f726bff9183c34dcf5c098c385730f9fd893765f69190a250565b6060600061153d60085490565b905060008060005b8381101561159f5733600d600061155d84600161368e565b81526020810191909152604001600020600101546001600160a01b03160361158d5782611589816136a1565b9350505b80611597816136a1565b915050611545565b5060008267ffffffffffffffff8111156115bb576115bb613416565b6040519080825280602002602001820160405280156115f457816020015b6115e1613168565b8152602001906001900390816115d95790505b50905060005b848110156110cb5733600d600061161284600161368e565b81526020810191909152604001600020600101546001600160a01b0316036116ce57600d600061164383600161368e565b81526020808201929092526040908101600020815160a0810183528154815260018201546001600160a01b0390811694820194909452600282015490931691830191909152600381015460608301526004015460ff161515608082015282518390859081106116b4576116b46136ba565b602002602001018190525082806116ca906136a1565b9350505b806116d8816136a1565b9150506115fa565b336000908152600e6020526040812054908190036117115760405163043f9e1160e41b815260040160405180910390fd5b336000818152600e60205260408082208290555183156108fc0291849190818181858888f1935050505015801561138f573d6000803e3d6000fd5b6060600061175960085490565b90506000805b828110156117ad576001600160a01b03851661177f6106c183600161368e565b6001600160a01b03160361179b5781611797816136a1565b9250505b806117a5816136a1565b91505061175f565b5060008167ffffffffffffffff8111156117c9576117c9613416565b6040519080825280602002602001820160405280156117f2578160200160208202803683370190505b5090506000805b8481101561186f576001600160a01b0387166118196106c183600161368e565b6001600160a01b03160361185d5761183281600161368e565b838381518110611844576118446136ba565b602090810291909101015281611859816136a1565b9250505b80611867816136a1565b9150506117f9565b509095945050505050565b6118826123e6565b6001600160a01b038116600081815260136020526040808220805460ff19169055517f5339e76deb16eade3efd8544d1f683635ff55e3866c7a2fae6aee23211cd5f039190a250565b60006118d561274f565b3360009081526013602052604090205460ff16156119055760405162461bcd60e51b8152600401610eaa9061376a565b60145460ff16801561192757503360009081526012602052604090205460ff16155b156119445760405162461bcd60e51b8152600401610eaa90613792565b61194d3361279c565b600c54341461196f5760405163cd1c886760e01b815260040160405180910390fd5b600c54600f6000828254611983919061368e565b9091555050600880546001019055600061199c60085490565b90506119a83382612823565b6119b281846129ae565b90505b919050565b6000818152600260205260408120546001600160a01b0316806119b25760405162461bcd60e51b8152602060048201526018602482015277115490cdcc8c4e881a5b9d985b1a59081d1bdad95b88125160421b6044820152606401610eaa565b611a226123e6565b600f54600003611a455760405163043f9e1160e41b815260040160405180910390fd5b600f805460009091556007546001600160a01b03166001600160a01b03166108fc829081150290604051600060405180830381858888f1935050505015801561138f573d6000803e3d6000fd5b60006001600160a01b038216611afc5760405162461bcd60e51b815260206004820152602960248201527f4552433732313a2061646472657373207a65726f206973206e6f7420612076616044820152683634b21037bbb732b960b91b6064820152608401610eaa565b506001600160a01b031660009081526003602052604090205490565b611b206123e6565b6114da6000612a79565b6000611b3461274f565b3360009081526013602052604090205460ff1615611b645760405162461bcd60e51b8152600401610eaa9061376a565b60145460ff168015611b8657503360009081526012602052604090205460ff16155b15611ba35760405162461bcd60e51b8152600401610eaa90613792565b611bac3361279c565b600b54600c54611bbc919061368e565b3414611bdb5760405163cd1c886760e01b815260040160405180910390fd5b600b54600c54611beb919061368e565b600f6000828254611bfc919061368e565b90915550506008805460010190556000611c1560085490565b9050611c213382612823565b611c2b81856129ae565b611c358184612acb565b9392505050565b6000828152600d6020526040902060018101546001600160a01b03163314611c77576040516342e8fb9360e11b815260040160405180910390fd5b60028101546001600160a01b03163014611ca45760405163d46afe9f60e01b815260040160405180910390fd5b600481015460ff1615611cca5760405163898c8e6760e01b815260040160405180910390fd5b60008211611cea5760405162bfc92160e01b815260040160405180910390fd5b6003015550565b611cf96123e6565b6001600160a01b038116600081815260126020526040808220805460ff19169055517f535611fb62fa2a833988f283b779e417e996813e44046f521d76c17b5943b08c9190a250565b606060018054610d8c906136d0565b61138f338383612bd0565b611d646123e6565b600b55565b611d716123e6565b6114da612c9e565b611d83338361250d565b611d9f5760405162461bcd60e51b8152600401610eaa9061371d565b611dab84848484612cda565b50505050565b611db961274f565b3360009081526013602052604090205460ff1615611de95760405162461bcd60e51b8152600401610eaa9061376a565b60145460ff168015611e0b57503360009081526012602052604090205460ff16155b15611e285760405162461bcd60e51b8152600401610eaa90613792565b611e313361279c565b6000818152600d6020526040902060038101546001909101546001600160a01b0316348214611e735760405163cd1c886760e01b815260040160405180910390fd5b6000838152600d602052604090206002810180546001600160a01b0319908116331790915560048201805460ff1916600190811790915590910180549091169055611ec2600980546001019055565b611ecd30338561258b565b6001600160a01b0381166000908152600e602052604081208054349290611ef590849061368e565b9091555050600b54600f8054600090611f0f90849061368e565b9091555050505050565b611f216123e6565b600c55565b6060611f3182612440565b60008281526006602052604081208054611f4a906136d0565b80601f0160208091040260200160405190810160405280929190818152602001828054611f76906136d0565b8015611fc35780601f10611f9857610100808354040283529160200191611fc3565b820191906000526020600020905b815481529060010190602001808311611fa657829003601f168201915b505050505090506000611fe160408051602081019091526000815290565b90508051600003611ff3575092915050565b81511561202557808260405160200161200d9291906137bb565b60405160208183030381529060405292505050919050565b61202e84612d0d565b949350505050565b61203e61274f565b3360009081526013602052604090205460ff161561206e5760405162461bcd60e51b8152600401610eaa9061376a565b60145460ff16801561209057503360009081526012602052604090205460ff16155b156120ad5760405162461bcd60e51b8152600401610eaa90613792565b6120b63361279c565b6000828152600d60205260409020600201546001600160a01b031633146120f0576040516330cd747160e01b815260040160405180910390fd5b600b5434146121125760405163cd1c886760e01b815260040160405180910390fd5b600b54600f6000828254612126919061368e565b90915550506000828152600d6020526040902060048101805460ff19169055600381018290556001810180546001600160a01b03199081163317909155600290910180549091163017905561217b6009612d80565b61138f33308461258b565b60606121906123e6565b6010805480602002602001604051908101604052809291908181526020018280548015610e0557602002820191906000526020600020905b81546001600160a01b031681526001909101906020018083116121c8575050505050905090565b6121f76123e6565b6001600160a01b038116600081815260126020526040808220805460ff19166001179055517f4f783c179409b4127238bc9c990bc99b9a651666a0d20b51d6c42849eb88466d9190a250565b600061224e60085490565b905090565b61225b6123e6565b6001600160a01b0381166122c05760405162461bcd60e51b815260206004820152602660248201527f4f776e61626c653a206e6577206f776e657220697320746865207a65726f206160448201526564647265737360d01b6064820152608401610eaa565b6122c981612a79565b50565b6122d46123e6565b6000818152600260205260409020546001600160a01b03166123095760405163677510db60e11b815260040160405180910390fd5b61231281612dd7565b6000908152600d602052604081208181556001810180546001600160a01b031990811690915560028201805490911690556003810191909155600401805460ff19169055565b6000818152600d60205260408120600201546001600160a01b031630148015610d5c5750506000908152600d602052604090206004015460ff161590565b60006001600160e01b031982166380ac58cd60e01b14806123c757506001600160e01b03198216635b5e139f60e01b145b80610d5c57506301ffc9a760e01b6001600160e01b0319831614610d5c565b6007546001600160a01b031633146114da5760405162461bcd60e51b815260206004820181905260248201527f4f776e61626c653a2063616c6c6572206973206e6f7420746865206f776e65726044820152606401610eaa565b6000818152600260205260409020546001600160a01b03166122c95760405162461bcd60e51b8152602060048201526018602482015277115490cdcc8c4e881a5b9d985b1a59081d1bdad95b88125160421b6044820152606401610eaa565b600081815260046020526040902080546001600160a01b0319166001600160a01b03841690811790915581906124d4826119ba565b6001600160a01b03167f8c5be1e5ebec7d5bd14f71427d1e84f3dd0314c0f7b2291e5b200ac8c7c3b92560405160405180910390a45050565b600080612519836119ba565b9050806001600160a01b0316846001600160a01b0316148061256057506001600160a01b0380821660009081526005602090815260408083209388168352929052205460ff165b8061202e5750836001600160a01b031661257984610e0f565b6001600160a01b031614949350505050565b826001600160a01b031661259e826119ba565b6001600160a01b0316146125c45760405162461bcd60e51b8152600401610eaa906137ea565b6001600160a01b0382166126265760405162461bcd60e51b8152602060048201526024808201527f4552433732313a207472616e7366657220746f20746865207a65726f206164646044820152637265737360e01b6064820152608401610eaa565b826001600160a01b0316612639826119ba565b6001600160a01b03161461265f5760405162461bcd60e51b8152600401610eaa906137ea565b600081815260046020908152604080832080546001600160a01b03199081169091556001600160a01b0387811680865260038552838620805460001901905590871680865283862080546001019055868652600290945282852080549092168417909155905184937fddf252ad1be2c89b69c2b068fc378daa952ba7f163c4a11628f55a4df523b3ef91a4505050565b6126f761274f565b6007805460ff60a01b1916600160a01b1790557f62e78cea01bee320cd4e420270b5ea74000d11b0c9f74754ebdbfc544b05a2586127323390565b6040516001600160a01b03909116815260200160405180910390a1565b600754600160a01b900460ff16156114da5760405162461bcd60e51b815260206004820152601060248201526f14185d5cd8589b194e881c185d5cd95960821b6044820152606401610eaa565b6001600160a01b03811660009081526011602052604090205460ff166122c9576010805460018181019092557f1b6847dc741a1b0cd08d278845f9d819d87b734759afb55fe2de5cb82a9ae6720180546001600160a01b0384166001600160a01b031990911681179091556000908152601160205260409020805460ff1916909117905550565b6001600160a01b0382166128795760405162461bcd60e51b815260206004820181905260248201527f4552433732313a206d696e7420746f20746865207a65726f20616464726573736044820152606401610eaa565b6000818152600260205260409020546001600160a01b0316156128de5760405162461bcd60e51b815260206004820152601c60248201527f4552433732313a20746f6b656e20616c7265616479206d696e746564000000006044820152606401610eaa565b6000818152600260205260409020546001600160a01b0316156129435760405162461bcd60e51b815260206004820152601c60248201527f4552433732313a20746f6b656e20616c7265616479206d696e746564000000006044820152606401610eaa565b6001600160a01b038216600081815260036020908152604080832080546001019055848352600290915280822080546001600160a01b0319168417905551839291907fddf252ad1be2c89b69c2b068fc378daa952ba7f163c4a11628f55a4df523b3ef908290a45050565b6000828152600260205260409020546001600160a01b0316612a295760405162461bcd60e51b815260206004820152602e60248201527f45524337323155524953746f726167653a2055524920736574206f66206e6f6e60448201526d32bc34b9ba32b73a103a37b5b2b760911b6064820152608401610eaa565b6000828152600660205260409020612a41828261387d565b506040518281527ff8e1a15aba9398e019f0b49df1a4fde98ee17ae345cb5f6b5e2c27f5033e8ce79060200160405180910390a15050565b600780546001600160a01b038381166001600160a01b0319831681179093556040519116919082907f8be0079c531659141344cd1fd0a4f28419497f9722a3daafe3b4186f6b6457e090600090a35050565b60008111612aeb5760405162bfc92160e01b815260040160405180910390fd5b6040805160a08101825283815233602080830182815230848601818152606086018881526000608088018181528b8252600d909652979097209551865591516001860180546001600160a01b03199081166001600160a01b0393841617909155925160028701805490941691161790915593516003840155516004909201805460ff191692151592909217909155612b83918461258b565b604080513381523060208201529081018290526000606082015282907fb640004f1d14576d0c209e240cad0410e0d8c0c33a09375861fbadae2588a98d9060800160405180910390a25050565b816001600160a01b0316836001600160a01b031603612c315760405162461bcd60e51b815260206004820152601960248201527f4552433732313a20617070726f766520746f2063616c6c6572000000000000006044820152606401610eaa565b6001600160a01b03838116600081815260056020908152604080832094871680845294825291829020805460ff191686151590811790915591519182527f17307eab39ab6107e8899845ad3d59bd9653f200f220920489ca2b5937696c31910160405180910390a3505050565b612ca6612e17565b6007805460ff60a01b191690557f5db9ee0a495bf2e6ff9c91a7834c1ba4fdd244a5e8aa4e537bd38aeae4b073aa33612732565b612ce584848461258b565b612cf184848484612e67565b611dab5760405162461bcd60e51b8152600401610eaa9061393d565b6060612d1882612440565b6000612d2f60408051602081019091526000815290565b90506000815111612d4f5760405180602001604052806000815250611c35565b80612d5984612f68565b604051602001612d6a9291906137bb565b6040516020818303038152906040529392505050565b805480612dcf5760405162461bcd60e51b815260206004820152601b60248201527f436f756e7465723a2064656372656d656e74206f766572666c6f7700000000006044820152606401610eaa565b600019019055565b612de081612ffb565b60008181526006602052604090208054612df9906136d0565b1590506122c95760008181526006602052604081206122c991613196565b600754600160a01b900460ff166114da5760405162461bcd60e51b815260206004820152601460248201527314185d5cd8589b194e881b9bdd081c185d5cd95960621b6044820152606401610eaa565b60006001600160a01b0384163b15612f5d57604051630a85bd0160e11b81526001600160a01b0385169063150b7a0290612eab90339089908890889060040161398f565b6020604051808303816000875af1925050508015612ee6575060408051601f3d908101601f19168201909252612ee3918101906139cc565b60015b612f43573d808015612f14576040519150601f19603f3d011682016040523d82523d6000602084013e612f19565b606091505b508051600003612f3b5760405162461bcd60e51b8152600401610eaa9061393d565b805181602001fd5b6001600160e01b031916630a85bd0160e11b14905061202e565b506001949350505050565b60606000612f7583613090565b600101905060008167ffffffffffffffff811115612f9557612f95613416565b6040519080825280601f01601f191660200182016040528015612fbf576020820181803683370190505b5090508181016020015b600019016f181899199a1a9b1b9c1cb0b131b232b360811b600a86061a8153600a8504945084612fc957509392505050565b6000613006826119ba565b9050613011826119ba565b600083815260046020908152604080832080546001600160a01b03199081169091556001600160a01b0385168085526003845282852080546000190190558785526002909352818420805490911690555192935084927fddf252ad1be2c89b69c2b068fc378daa952ba7f163c4a11628f55a4df523b3ef908390a45050565b60008072184f03e93ff9f4daa797ed6e38ed64bf6a1f0160401b83106130cf5772184f03e93ff9f4daa797ed6e38ed64bf6a1f0160401b830492506040015b6d04ee2d6d415b85acef810000000083106130fb576d04ee2d6d415b85acef8100000000830492506020015b662386f26fc10000831061311957662386f26fc10000830492506010015b6305f5e1008310613131576305f5e100830492506008015b612710831061314557612710830492506004015b60648310613157576064830492506002015b600a83106119b25760010192915050565b6040805160a08101825260008082526020820181905291810182905260608101829052608081019190915290565b5080546131a2906136d0565b6000825580601f106131b2575050565b601f0160209004906000526020600020908101906122c991905b808211156131e057600081556001016131cc565b5090565b602080825282518282018190526000919060409081850190868401855b8281101561325357815180518552868101516001600160a01b03908116888701528682015116868601526060808201519086015260809081015115159085015260a09093019290850190600101613201565b5091979650505050505050565b6001600160e01b0319811681146122c957600080fd5b60006020828403121561328857600080fd5b8135611c3581613260565b803580151581146119b557600080fd5b6000602082840312156132b557600080fd5b611c3582613293565b60005b838110156132d95781810151838201526020016132c1565b50506000910152565b600081518084526132fa8160208601602086016132be565b601f01601f19169290920160200192915050565b602081526000611c3560208301846132e2565b60006020828403121561333357600080fd5b5035919050565b80356001600160a01b03811681146119b557600080fd5b6000806040838503121561336457600080fd5b61336d8361333a565b946020939093013593505050565b60008060006060848603121561339057600080fd5b6133998461333a565b92506133a76020850161333a565b9150604084013590509250925092565b6000602082840312156133c957600080fd5b611c358261333a565b6020808252825182820181905260009190848201906040850190845b8181101561340a578351835292840192918401916001016133ee565b50909695505050505050565b634e487b7160e01b600052604160045260246000fd5b600067ffffffffffffffff8084111561344757613447613416565b604051601f8501601f19908116603f0116810190828211818310171561346f5761346f613416565b8160405280935085815286868601111561348857600080fd5b858560208301376000602087830101525050509392505050565b600082601f8301126134b357600080fd5b611c358383356020850161342c565b6000602082840312156134d457600080fd5b813567ffffffffffffffff8111156134eb57600080fd5b61202e848285016134a2565b6000806040838503121561350a57600080fd5b823567ffffffffffffffff81111561352157600080fd5b61352d858286016134a2565b95602094909401359450505050565b6000806040838503121561354f57600080fd5b50508035926020909101359150565b6000806040838503121561357157600080fd5b61357a8361333a565b915061358860208401613293565b90509250929050565b600080600080608085870312156135a757600080fd5b6135b08561333a565b93506135be6020860161333a565b925060408501359150606085013567ffffffffffffffff8111156135e157600080fd5b8501601f810187136135f257600080fd5b6136018782356020840161342c565b91505092959194509250565b6020808252825182820181905260009190848201906040850190845b8181101561340a5783516001600160a01b031683529284019291840191600101613629565b6000806040838503121561366157600080fd5b61366a8361333a565b91506135886020840161333a565b634e487b7160e01b600052601160045260246000fd5b80820180821115610d5c57610d5c613678565b6000600182016136b3576136b3613678565b5060010190565b634e487b7160e01b600052603260045260246000fd5b600181811c908216806136e457607f821691505b60208210810361370457634e487b7160e01b600052602260045260246000fd5b50919050565b81810381811115610d5c57610d5c613678565b6020808252602d908201527f4552433732313a2063616c6c6572206973206e6f7420746f6b656e206f776e6560408201526c1c881bdc88185c1c1c9bdd9959609a1b606082015260800190565b6020808252600e908201526d165bdd48185c994818985b9b995960921b604082015260600190565b6020808252600f908201526e139bdd081dda1a5d195b1a5cdd1959608a1b604082015260600190565b600083516137cd8184602088016132be565b8351908301906137e18183602088016132be565b01949350505050565b60208082526025908201527f4552433732313a207472616e736665722066726f6d20696e636f72726563742060408201526437bbb732b960d91b606082015260800190565b601f821115610f4b57600081815260208120601f850160051c810160208610156138565750805b601f850160051c820191505b8181101561387557828155600101613862565b505050505050565b815167ffffffffffffffff81111561389757613897613416565b6138ab816138a584546136d0565b8461382f565b602080601f8311600181146138e057600084156138c85750858301515b600019600386901b1c1916600185901b178555613875565b600085815260208120601f198616915b8281101561390f578886015182559484019460019091019084016138f0565b508582101561392d5787850151600019600388901b60f8161c191681555b5050505050600190811b01905550565b60208082526032908201527f4552433732313a207472616e7366657220746f206e6f6e20455243373231526560408201527131b2b4bb32b91034b6b83632b6b2b73a32b960711b606082015260800190565b6001600160a01b03858116825284166020820152604081018390526080606082018190526000906139c2908301846132e2565b9695505050505050565b6000602082840312156139de57600080fd5b8151611c358161326056fea264697066735822122001426759406bb020a8df4fc97a54d6868337d8dc3d5e250a5d102ef0210fb00564736f6c63430008130033",
  "linkReferences": {},
  "deployedLinkReferences": {}
}